Component: ARM Compiler 5.06 update 6 (build 750) Tool: armlink [4d35ed]

==============================================================================

Section Cross References

    main.o(i.main) refers to rt_cmsis.o(i.osKernelInitialize) for osKernelInitialize
    main.o(i.main) refers to thread.o(i.Init_Thread) for Init_Thread
    main.o(i.main) refers to utils.o(i.Initialize_peripherals) for Initialize_peripherals
    main.o(i.main) refers to rt_cmsis.o(i.osKernelStart) for osKernelStart
    thread.o(i.Init_Thread) refers to rt_cmsis.o(i.osThreadCreate) for osThreadCreate
    thread.o(i.Init_Thread) refers to thread.o(.constdata) for os_thread_def_LCD
    thread.o(i.Init_Thread) refers to thread.o(.data) for tid_Thread
    thread.o(i.LCD) refers to lcd.o(i.limpiaBuffer) for limpiaBuffer
    thread.o(i.LCD) refers to rt_cmsis.o(i.osSignalWait) for osSignalWait
    thread.o(i.LCD) refers to gpio_lpc17xx.o(i.GPIO_PinWrite) for GPIO_PinWrite
    thread.o(i.LCD) refers to rt_cmsis.o(i.osDelay) for osDelay
    thread.o(i.LCD) refers to lcd.o(i.menosLinea) for menosLinea
    thread.o(i.LCD) refers to lcd.o(i.menosLinea2) for menosLinea2
    thread.o(i.LCD) refers to lcd.o(i.masLinea) for masLinea
    thread.o(i.LCD) refers to lcd.o(i.masLinea2) for masLinea2
    thread.o(i.LCD) refers to lcd.o(i.copy_to_lcd) for copy_to_lcd
    thread.o(i.LCD) refers to rt_cmsis.o(i.osThreadYield) for osThreadYield
    thread.o(i.LCD) refers to thread.o(.data) for linea
==============================================================================

Removing Unused input sections from the image.

    Removing thread.o(.rev16_text), (4 bytes).
    Removing thread.o(.revsh_text), (4 bytes).
    Removing thread.o(.rrx_text), (6 bytes).
    Removing lcd.o(.rev16_text), (4 bytes).
    Removing lcd.o(.revsh_text), (4 bytes).
    Removing lcd.o(.rrx_text), (6 bytes).
    Removing lcd.o(i.escribeLetra_L1), (112 bytes).
    Removing lcd.o(i.escribeLetra_L2), (116 bytes).
    Removing lcd.o(i.escribirNumeroDecimal), (100 bytes).
    Removing lcd.o(i.escribirNumeroEntero), (84 bytes).
    Removing lcd.o(i.imprimeLCD), (44 bytes).
    Removing lcd.o(i.letraA), (40 bytes).
    Removing lcd.o(.constdata), (2400 bytes).
    Removing utils.o(.rev16_text), (4 bytes).
    Removing utils.o(.revsh_text), (4 bytes).
    Removing utils.o(.rrx_text), (6 bytes).
    Removing rtx_conf_cm.o(i.__user_perthread_libspace), (44 bytes).
    Removing rtx_conf_cm.o(i._mutex_initialize), (44 bytes).
==============================================================================

Image Symbol Table

    Local Symbols

    Symbol Name                              Value     Ov Type        Size  Object(Section)

    RESET                                    0x00000000   Section      204  startup_lpc17xx.o(RESET)
    ../clib/angel/boardlib.s                 0x00000000   Number         0  boardinit2.o ABSOLUTE
    ../clib/angel/boardlib.s                 0x00000000   Number         0  boardshut.o ABSOLUTE
    ../clib/angel/boardlib.s                 0x00000000   Number         0  boardinit1.o ABSOLUTE
    ../clib/angel/handlers.s                 0x00000000   Number         0  __scatter_zi.o ABSOLUTE
    ../clib/angel/handlers.s                 0x00000000   Number         0  __scatter_copy.o ABSOLUTE
    ../clib/angel/kernel.s                   0x00000000   Number         0  __rtentry.o ABSOLUTE
    ../clib/angel/kernel.s                   0x00000000   Number         0  __rtentry2.o ABSOLUTE
    ../clib/angel/kernel.s                   0x00000000   Number         0  __rtentry4.o ABSOLUTE
    ../clib/angel/kernel.s                   0x00000000   Number         0  rtexit.o ABSOLUTE
    ../clib/angel/kernel.s                   0x00000000   Number         0  rtexit2.o ABSOLUTE
    ../clib/angel/rt.s                       0x00000000   Number         0  rt_locale.o ABSOLUTE
    ../clib/angel/rt.s                       0x00000000   Number         0  rt_raise.o ABSOLUTE
    ../clib/angel/rt.s                       0x00000000   Number         0  rt_div0.o ABSOLUTE
    ../clib/angel/rt.s                       0x00000000   Number         0  rt_locale_twolibspace.o ABSOLUTE
    ../clib/angel/rt.s                       0x00000000   Number         0  aeabi_ldiv0_sigfpe.o ABSOLUTE
    ../clib/angel/rt.s                       0x00000000   Number         0  aeabi_ldiv0.o ABSOLUTE
    ../clib/angel/rt.s                       0x00000000   Number         0  rt_locale_intlibspace.o ABSOLUTE
    ../clib/angel/scatter.s                  0x00000000   Number         0  __scatter.o ABSOLUTE
    ../clib/angel/startup.s                  0x00000000   Number         0  __main.o ABSOLUTE
    ../clib/angel/sys.s                      0x00000000   Number         0  libspace.o ABSOLUTE
    ../clib/angel/sys.s                      0x00000000   Number         0  indicate_semi.o ABSOLUTE
    ../clib/angel/sys.s                      0x00000000   Number         0  use_no_semi.o ABSOLUTE
    ../clib/angel/sys.s                      0x00000000   Number         0  sys_stackheap_outer.o ABSOLUTE
    ../clib/angel/sysapp.c                   0x00000000   Number         0  sys_command.o ABSOLUTE
    ../clib/angel/sysapp.c                   0x00000000   Number         0  sys_exit.o ABSOLUTE
    ../clib/angel/sysapp.c                   0x00000000   Number         0  sys_wrch.o ABSOLUTE
    ../clib/armsys.c                         0x00000000   Number         0  argv_veneer.o ABSOLUTE
    ../clib/armsys.c                         0x00000000   Number         0  argv_veneer.o ABSOLUTE
    ../clib/armsys.c                         0x00000000   Number         0  no_argv.o ABSOLUTE
    ../clib/armsys.c                         0x00000000   Number         0  _get_argv_nomalloc.o ABSOLUTE
    ../clib/bigflt.c                         0x00000000   Number         0  bigflt0.o ABSOLUTE
    ../clib/btod.s                           0x00000000   Number         0  btod.o ABSOLUTE
    ../clib/heapalloc.c                      0x00000000   Number         0  hrguard.o ABSOLUTE
    ../clib/heapaux.c                        0x00000000   Number         0  heapauxi.o ABSOLUTE
    ../clib/libinit.s                        0x00000000   Number         0  libinit.o ABSOLUTE
    ../clib/libinit.s                        0x00000000   Number         0  libinit2.o ABSOLUTE
    ../clib/libinit.s                        0x00000000   Number         0  libshutdown.o ABSOLUTE
    ../clib/libinit.s                        0x00000000   Number         0  libshutdown2.o ABSOLUTE
    ../clib/locale.s                         0x00000000   Number         0  lc_numeric_c.o ABSOLUTE
    ../clib/longlong.s                       0x00000000   Number         0  lludiv10.o ABSOLUTE
    ../clib/longlong.s                       0x00000000   Number         0  lludivv7m.o ABSOLUTE
    ../clib/memcpset.s                       0x00000000   Number         0  strcmpv7m.o ABSOLUTE
    ../clib/memcpset.s                       0x00000000   Number         0  rt_memclr_w.o ABSOLUTE
    ../clib/printf.c                         0x00000000   Number         0  __printf_wp.o ABSOLUTE
    ../clib/printf.c                         0x00000000   Number         0  __printf_flags_wp.o ABSOLUTE
    ../clib/printf.c                         0x00000000   Number         0  __printf_ss_wp.o ABSOLUTE
    ../clib/printf.c                         0x00000000   Number         0  __printf_flags_ss_wp.o ABSOLUTE
    ../clib/printf.c                         0x00000000   Number         0  _printf_char_common.o ABSOLUTE
    ../clib/printf.c                         0x00000000   Number         0  __printf_flags.o ABSOLUTE
    ../clib/printf.c                         0x00000000   Number         0  _sputc.o ABSOLUTE
    ../clib/printf.c                         0x00000000   Number         0  _printf_intcommon.o ABSOLUTE
    ../clib/printf.c                         0x00000000   Number         0  __printf_nopercent.o ABSOLUTE
    ../clib/printf.c                         0x00000000   Number         0  _printf_fp_infnan.o ABSOLUTE
    ../clib/printf.c                         0x00000000   Number         0  _printf_fp_dec.o ABSOLUTE
    ../clib/printf.c                         0x00000000   Number         0  __printf_flags_ss.o ABSOLUTE
    ../clib/printf.c                         0x00000000   Number         0  __printf_ss.o ABSOLUTE
    ../clib/printf.c                         0x00000000   Number         0  _printf_dec.o ABSOLUTE
    ../clib/printf.c                         0x00000000   Number         0  __printf.o ABSOLUTE
    ../clib/printf.c                         0x00000000   Number         0  noretval__2sprintf.o ABSOLUTE
    ../clib/printf.c                         0x00000000   Number         0  __2sprintf.o ABSOLUTE
    ../clib/printf_percent.s                 0x00000000   Number         0  _printf_f.o ABSOLUTE
    ../clib/printf_percent.s                 0x00000000   Number         0  _printf_percent_end.o ABSOLUTE
    ../clib/printf_percent.s                 0x00000000   Number         0  _printf_percent.o ABSOLUTE
    ../clib/printf_percent.s                 0x00000000   Number         0  _printf_u.o ABSOLUTE
    ../clib/signal.c                         0x00000000   Number         0  defsig_exit.o ABSOLUTE
    ../clib/signal.c                         0x00000000   Number         0  defsig_pvfn_inner.o ABSOLUTE
    ../clib/signal.c                         0x00000000   Number         0  defsig_fpe_formal.o ABSOLUTE
    ../clib/signal.c                         0x00000000   Number         0  defsig_fpe_outer.o ABSOLUTE
    ../clib/signal.c                         0x00000000   Number         0  defsig_other.o ABSOLUTE
    ../clib/signal.c                         0x00000000   Number         0  defsig_segv_inner.o ABSOLUTE
    ../clib/signal.c                         0x00000000   Number         0  defsig_cppl_inner.o ABSOLUTE
    ../clib/signal.c                         0x00000000   Number         0  defsig_stak_inner.o ABSOLUTE
    ../clib/signal.c                         0x00000000   Number         0  defsig_rtmem_inner.o ABSOLUTE
    ../clib/signal.c                         0x00000000   Number         0  defsig_rtred_inner.o ABSOLUTE
    ../clib/signal.c                         0x00000000   Number         0  defsig_abrt_inner.o ABSOLUTE
    ../clib/signal.c                         0x00000000   Number         0  defsig_rtmem_formal.o ABSOLUTE
    ../clib/signal.c                         0x00000000   Number         0  defsig_rtmem_outer.o ABSOLUTE
    ../clib/signal.c                         0x00000000   Number         0  defsig_general.o ABSOLUTE
    ../clib/signal.c                         0x00000000   Number         0  __raise.o ABSOLUTE
    ../clib/signal.c                         0x00000000   Number         0  defsig_fpe_inner.o ABSOLUTE
    ../clib/signal.s                         0x00000000   Number         0  defsig.o ABSOLUTE
    ../clib/stdlib.c                         0x00000000   Number         0  exit.o ABSOLUTE
    ../clib/string.c                         0x00000000   Number         0  strlen.o ABSOLUTE
    ../fplib/dcmpi.s                         0x00000000   Number         0  dcmpi.o ABSOLUTE
    ../fplib/dflt.s                          0x00000000   Number         0  dflt_clz.o ABSOLUTE
    ../fplib/dleqf.s                         0x00000000   Number         0  dleqf.o ABSOLUTE
    ../fplib/dmul.s                          0x00000000   Number         0  dmul.o ABSOLUTE
    ../fplib/dnaninf.s                       0x00000000   Number         0  dnaninf.o ABSOLUTE
    ../fplib/dretinf.s                       0x00000000   Number         0  dretinf.o ABSOLUTE
    ../fplib/f2d.s                           0x00000000   Number         0  f2d.o ABSOLUTE
    ../fplib/fnaninf.s                       0x00000000   Number         0  fnaninf.o ABSOLUTE
    ../fplib/fpinit.s                        0x00000000   Number         0  fpinit.o ABSOLUTE
    ../fplib/istatus.s                       0x00000000   Number         0  istatus.o ABSOLUTE
    ../fplib/printf1.s                       0x00000000   Number         0  printf1.o ABSOLUTE
    ../fplib/usenofp.s                       0x00000000   Number         0  usenofp.o ABSOLUTE
    ../mathlib/fpclassify.c                  0x00000000   Number         0  fpclassify.o ABSOLUTE
    ..\HAL_CM.c                              0x00000000   Number         0  hal_cm.o ABSOLUTE
    ..\\rt_CMSIS.c                           0x00000000   Number         0  rt_cmsis.o ABSOLUTE
    ..\\rt_System.c                          0x00000000   Number         0  rt_system.o ABSOLUTE
    ..\rt_CMSIS.c                            0x00000000   Number         0  rt_cmsis.o ABSOLUTE
    ..\rt_Event.c                            0x00000000   Number         0  rt_event.o ABSOLUTE
    ..\rt_List.c                             0x00000000   Number         0  rt_list.o ABSOLUTE
    ..\rt_Mailbox.c                          0x00000000   Number         0  rt_mailbox.o ABSOLUTE
    ..\rt_MemBox.c                           0x00000000   Number         0  rt_membox.o ABSOLUTE
    ..\rt_Memory.c                           0x00000000   Number         0  rt_memory.o ABSOLUTE
    ..\rt_Mutex.c                            0x00000000   Number         0  rt_mutex.o ABSOLUTE
    ..\rt_Robin.c                            0x00000000   Number         0  rt_robin.o ABSOLUTE
    ..\rt_Semaphore.c                        0x00000000   Number         0  rt_semaphore.o ABSOLUTE
    ..\rt_System.c                           0x00000000   Number         0  rt_system.o ABSOLUTE
    ..\rt_Task.c                             0x00000000   Number         0  rt_task.o ABSOLUTE
    ..\rt_Time.c                             0x00000000   Number         0  rt_time.o ABSOLUTE
    C:\Keil_v5\ARM\PACK\Keil\LPC1700_DFP\2.2.0\RTE_Driver\GPDMA_LPC17xx.c 0x00000000   Number         0  gpdma_lpc17xx.o ABSOLUTE
    C:\Keil_v5\ARM\PACK\Keil\LPC1700_DFP\2.2.0\RTE_Driver\GPIO_LPC17xx.c 0x00000000   Number         0  gpio_lpc17xx.o ABSOLUTE
    C:\Keil_v5\ARM\PACK\Keil\LPC1700_DFP\2.2.0\RTE_Driver\PIN_LPC17xx.c 0x00000000   Number         0  pin_lpc17xx.o ABSOLUTE
    C:\Keil_v5\ARM\PACK\Keil\LPC1700_DFP\2.2.0\RTE_Driver\SSP_LPC17xx.c 0x00000000   Number         0  ssp_lpc17xx.o ABSOLUTE
    C:\\Keil_v5\\ARM\\PACK\\Keil\\LPC1700_DFP\\2.2.0\\RTE_Driver\\GPDMA_LPC17xx.c 0x00000000   Number         0  gpdma_lpc17xx.o ABSOLUTE
    C:\\Keil_v5\\ARM\\PACK\\Keil\\LPC1700_DFP\\2.2.0\\RTE_Driver\\GPIO_LPC17xx.c 0x00000000   Number         0  gpio_lpc17xx.o ABSOLUTE
    C:\\Keil_v5\\ARM\\PACK\\Keil\\LPC1700_DFP\\2.2.0\\RTE_Driver\\PIN_LPC17xx.c 0x00000000   Number         0  pin_lpc17xx.o ABSOLUTE
    C:\\Keil_v5\\ARM\\PACK\\Keil\\LPC1700_DFP\\2.2.0\\RTE_Driver\\SSP_LPC17xx.c 0x00000000   Number         0  ssp_lpc17xx.o ABSOLUTE
    HAL_CM3.c                                0x00000000   Number         0  hal_cm3.o ABSOLUTE
    HAL_CM3.c                                0x00000000   Number         0  hal_cm3.o ABSOLUTE
    LCD.c                                    0x00000000   Number         0  lcd.o ABSOLUTE
    LCD.c                                    0x00000000   Number         0  lcd.o ABSOLUTE
    RTE\CMSIS\RTX_Conf_CM.c                  0x00000000   Number         0  rtx_conf_cm.o ABSOLUTE
    RTE\Device\LPC1768\startup_LPC17xx.s     0x00000000   Number         0  startup_lpc17xx.o ABSOLUTE
    RTE\Device\LPC1768\system_LPC17xx.c      0x00000000   Number         0  system_lpc17xx.o ABSOLUTE
    RTE\\CMSIS\\RTX_Conf_CM.c                0x00000000   Number         0  rtx_conf_cm.o ABSOLUTE
    RTE\\Device\\LPC1768\\system_LPC17xx.c   0x00000000   Number         0  system_lpc17xx.o ABSOLUTE
    SVC_Table.s                              0x00000000   Number         0  svc_table.o ABSOLUTE
    Thread.c                                 0x00000000   Number         0  thread.o ABSOLUTE
    Thread.c                                 0x00000000   Number         0  thread.o ABSOLUTE
    dc.s                                     0x00000000   Number         0  dc.o ABSOLUTE
    main.c                                   0x00000000   Number         0  main.o ABSOLUTE
    utils.c                                  0x00000000   Number         0  utils.o ABSOLUTE
    utils.c                                  0x00000000   Number         0  utils.o ABSOLUTE
    !!!main                                  0x000000cc   Section        8  __main.o(!!!main)
    !!!scatter                               0x000000d4   Section       52  __scatter.o(!!!scatter)
    !!handler_copy                           0x00000108   Section       26  __scatter_copy.o(!!handler_copy)
    !!handler_zi                             0x00000124   Section       28  __scatter_zi.o(!!handler_zi)
    .ARM.Collect$$libinit$$00000000          0x00000140   Section        2  libinit.o(.ARM.Collect$$libinit$$00000000)
    .ARM.Collect$$libinit$$00000002          0x00000142   Section        0  libinit2.o(.ARM.Collect$$libinit$$00000002)
    .ARM.Collect$$libinit$$00000004          0x00000142   Section        0  libinit2.o(.ARM.Collect$$libinit$$00000004)
    .ARM.Collect$$libinit$$0000000A          0x00000142   Section        0  libinit2.o(.ARM.Collect$$libinit$$0000000A)
    .ARM.Collect$$libinit$$0000000C          0x00000142   Section        0  libinit2.o(.ARM.Collect$$libinit$$0000000C)
    .ARM.Collect$$libinit$$0000000E          0x00000142   Section        0  libinit2.o(.ARM.Collect$$libinit$$0000000E)
    .ARM.Collect$$libinit$$00000011          0x00000142   Section        0  libinit2.o(.ARM.Collect$$libinit$$00000011)
    .ARM.Collect$$libinit$$00000013          0x00000142   Section        0  libinit2.o(.ARM.Collect$$libinit$$00000013)
    .ARM.Collect$$libinit$$00000015          0x00000142   Section        0  libinit2.o(.ARM.Collect$$libinit$$00000015)
    .ARM.Collect$$libinit$$00000017          0x00000142   Section        0  libinit2.o(.ARM.Collect$$libinit$$00000017)
    .ARM.Collect$$libinit$$00000019          0x00000142   Section        0  libinit2.o(.ARM.Collect$$libinit$$00000019)
    .ARM.Collect$$libinit$$0000001B          0x00000142   Section        0  libinit2.o(.ARM.Collect$$libinit$$0000001B)
    .ARM.Collect$$libinit$$0000001D          0x00000142   Section        0  libinit2.o(.ARM.Collect$$libinit$$0000001D)
    .ARM.Collect$$libinit$$0000001F          0x00000142   Section        0  libinit2.o(.ARM.Collect$$libinit$$0000001F)
    .ARM.Collect$$libinit$$00000021          0x00000142   Section        0  libinit2.o(.ARM.Collect$$libinit$$00000021)
    .ARM.Collect$$libinit$$00000023          0x00000142   Section        0  libinit2.o(.ARM.Collect$$libinit$$00000023)
    .ARM.Collect$$libinit$$00000025          0x00000142   Section        0  libinit2.o(.ARM.Collect$$libinit$$00000025)
    .ARM.Collect$$libinit$$0000002C          0x00000142   Section        0  libinit2.o(.ARM.Collect$$libinit$$0000002C)
    .ARM.Collect$$libinit$$0000002E          0x00000142   Section        0  libinit2.o(.ARM.Collect$$libinit$$0000002E)
    .ARM.Collect$$libinit$$00000030          0x00000142   Section        0  libinit2.o(.ARM.Collect$$libinit$$00000030)
    .ARM.Collect$$libinit$$00000032          0x00000142   Section        0  libinit2.o(.ARM.Collect$$libinit$$00000032)
    .ARM.Collect$$libinit$$00000033          0x00000142   Section        2  libinit2.o(.ARM.Collect$$libinit$$00000033)
    .ARM.Collect$$libshutdown$$00000000      0x00000144   Section        2  libshutdown.o(.ARM.Collect$$libshutdown$$00000000)
    .ARM.Collect$$libshutdown$$00000002      0x00000146   Section        0  libshutdown2.o(.ARM.Collect$$libshutdown$$00000002)
    .ARM.Collect$$libshutdown$$00000004      0x00000146   Section        0  libshutdown2.o(.ARM.Collect$$libshutdown$$00000004)
    .ARM.Collect$$libshutdown$$00000007      0x00000146   Section        0  libshutdown2.o(.ARM.Collect$$libshutdown$$00000007)
    .ARM.Collect$$libshutdown$$0000000A      0x00000146   Section        0  libshutdown2.o(.ARM.Collect$$libshutdown$$0000000A)
    .ARM.Collect$$libshutdown$$0000000C      0x00000146   Section        0  libshutdown2.o(.ARM.Collect$$libshutdown$$0000000C)
    .ARM.Collect$$libshutdown$$0000000F      0x00000146   Section        0  libshutdown2.o(.ARM.Collect$$libshutdown$$0000000F)
    .ARM.Collect$$libshutdown$$00000010      0x00000146   Section        2  libshutdown2.o(.ARM.Collect$$libshutdown$$00000010)
    .ARM.Collect$$rtentry$$00000000          0x00000148   Section        0  __rtentry.o(.ARM.Collect$$rtentry$$00000000)
    .ARM.Collect$$rtentry$$00000002          0x00000148   Section        0  __rtentry2.o(.ARM.Collect$$rtentry$$00000002)
    .ARM.Collect$$rtentry$$00000004          0x00000148   Section        6  __rtentry4.o(.ARM.Collect$$rtentry$$00000004)
    .ARM.Collect$$rtentry$$00000009          0x0000014e   Section        0  __rtentry2.o(.ARM.Collect$$rtentry$$00000009)
    .ARM.Collect$$rtentry$$0000000A          0x0000014e   Section        4  __rtentry2.o(.ARM.Collect$$rtentry$$0000000A)
    .ARM.Collect$$rtentry$$0000000B          0x00000152   Section        8  __rtentry2.o(.ARM.Collect$$rtentry$$0000000B)
    .ARM.Collect$$rtentry$$0000000D          0x0000015a   Section        8  __rtentry2.o(.ARM.Collect$$rtentry$$0000000D)
    .ARM.Collect$$rtexit$$00000000           0x00000162   Section        2  rtexit.o(.ARM.Collect$$rtexit$$00000000)
    .ARM.Collect$$rtexit$$00000002           0x00000164   Section        0  rtexit2.o(.ARM.Collect$$rtexit$$00000002)
    .ARM.Collect$$rtexit$$00000003           0x00000164   Section        4  rtexit2.o(.ARM.Collect$$rtexit$$00000003)
    .ARM.Collect$$rtexit$$00000004           0x00000168   Section        6  rtexit2.o(.ARM.Collect$$rtexit$$00000004)
    .emb_text                                0x00000170   Section       28  rtx_conf_cm.o(.emb_text)
    .emb_text                                0x0000018c   Section      304  hal_cm3.o(.emb_text)
    .text                                    0x000002bc   Section       60  startup_lpc17xx.o(.text)
    .text                                    0x000002f8   Section        2  use_no_semi.o(.text)
    .text                                    0x000002fa   Section        0  indicate_semi.o(.text)
    i.os_tick_irqack                         0x000002fa   Section        0  rt_system.o(i.os_tick_irqack)
    .ARM.__at_0x02FC                         0x000002fc   Section        4  startup_lpc17xx.o(.ARM.__at_0x02FC)
    .text                                    0x00000300   Section        8  libspace.o(.text)
    .text                                    0x00000308   Section        0  exit.o(.text)
    .text                                    0x0000031a   Section       78  rt_memclr_w.o(.text)
    .text                                    0x00000368   Section        0  heapauxi.o(.text)
    .text                                    0x00000370   Section        0  sys_exit.o(.text)
    .text                                    0x0000037c   Section       74  sys_stackheap_outer.o(.text)
    SVC_TABLE                                0x000003c8   Section        4  svc_table.o(SVC_TABLE)
    i.Clear_Channel_active_flag              0x000003cc   Section        0  gpdma_lpc17xx.o(i.Clear_Channel_active_flag)
    Clear_Channel_active_flag                0x000003cd   Thumb Code    28  gpdma_lpc17xx.o(i.Clear_Channel_active_flag)
    i.DMA_IRQHandler                         0x000003ec   Section        0  gpdma_lpc17xx.o(i.DMA_IRQHandler)
    i.EINT3_IRQHandler                       0x00000458   Section        0  utils.o(i.EINT3_IRQHandler)
    i.GPDMA_ChannelConfigure                 0x00000540   Section        0  gpdma_lpc17xx.o(i.GPDMA_ChannelConfigure)
    i.GPDMA_ChannelDisable                   0x000005d8   Section        0  gpdma_lpc17xx.o(i.GPDMA_ChannelDisable)
    i.GPDMA_ChannelGetCount                  0x00000608   Section        0  gpdma_lpc17xx.o(i.GPDMA_ChannelGetCount)
    i.GPDMA_Initialize                       0x00000630   Section        0  gpdma_lpc17xx.o(i.GPDMA_Initialize)
    i.GPDMA_PeripheralSelect                 0x000006bc   Section        0  gpdma_lpc17xx.o(i.GPDMA_PeripheralSelect)
    i.GPDMA_Uninitialize                     0x00000700   Section        0  gpdma_lpc17xx.o(i.GPDMA_Uninitialize)
    i.GPIO_PinWrite                          0x00000780   Section        0  gpio_lpc17xx.o(i.GPIO_PinWrite)
    i.GPIO_SetDir                            0x000007a8   Section        0  gpio_lpc17xx.o(i.GPIO_SetDir)
    i.GetSSPClockFreq                        0x000007e0   Section        0  ssp_lpc17xx.o(i.GetSSPClockFreq)
    GetSSPClockFreq                          0x000007e1   Thumb Code    64  ssp_lpc17xx.o(i.GetSSPClockFreq)
    i.Init_Thread                            0x00000824   Section        0  thread.o(i.Init_Thread)
    i.Initialize_peripherals                 0x0000084c   Section        0  utils.o(i.Initialize_peripherals)
    i.LCD                                    0x000009bc   Section        0  thread.o(i.LCD)
    i.LCD_reset                              0x00000ad0   Section        0  lcd.o(i.LCD_reset)
    i.PIN_Configure                          0x00000b1c   Section        0  pin_lpc17xx.o(i.PIN_Configure)
    i.SSP1_Control                           0x00000c18   Section        0  ssp_lpc17xx.o(i.SSP1_Control)
    SSP1_Control                             0x00000c19   Thumb Code    18  ssp_lpc17xx.o(i.SSP1_Control)
    i.SSP1_GPDMA_Rx_SignalEvent              0x00000c30   Section        0  ssp_lpc17xx.o(i.SSP1_GPDMA_Rx_SignalEvent)
    i.SSP1_GPDMA_Tx_SignalEvent              0x00000c44   Section        0  ssp_lpc17xx.o(i.SSP1_GPDMA_Tx_SignalEvent)
    i.SSP1_GetDataCount                      0x00000c58   Section        0  ssp_lpc17xx.o(i.SSP1_GetDataCount)
    SSP1_GetDataCount                        0x00000c59   Thumb Code    10  ssp_lpc17xx.o(i.SSP1_GetDataCount)
    i.SSP1_GetStatus                         0x00000c68   Section        0  ssp_lpc17xx.o(i.SSP1_GetStatus)
    SSP1_GetStatus                           0x00000c69   Thumb Code    12  ssp_lpc17xx.o(i.SSP1_GetStatus)
    i.SSP1_IRQHandler                        0x00000c78   Section        0  ssp_lpc17xx.o(i.SSP1_IRQHandler)
    i.SSP1_Initialize                        0x00000c88   Section        0  ssp_lpc17xx.o(i.SSP1_Initialize)
    SSP1_Initialize                          0x00000c89   Thumb Code    14  ssp_lpc17xx.o(i.SSP1_Initialize)
    i.SSP1_PowerControl                      0x00000c9c   Section        0  ssp_lpc17xx.o(i.SSP1_PowerControl)
    SSP1_PowerControl                        0x00000c9d   Thumb Code    14  ssp_lpc17xx.o(i.SSP1_PowerControl)
    i.SSP1_Receive                           0x00000cb0   Section        0  ssp_lpc17xx.o(i.SSP1_Receive)
    SSP1_Receive                             0x00000cb1   Thumb Code    18  ssp_lpc17xx.o(i.SSP1_Receive)
    i.SSP1_Send                              0x00000cc8   Section        0  ssp_lpc17xx.o(i.SSP1_Send)
    SSP1_Send                                0x00000cc9   Thumb Code    18  ssp_lpc17xx.o(i.SSP1_Send)
    i.SSP1_Transfer                          0x00000ce0   Section        0  ssp_lpc17xx.o(i.SSP1_Transfer)
    SSP1_Transfer                            0x00000ce1   Thumb Code    22  ssp_lpc17xx.o(i.SSP1_Transfer)
    i.SSP1_Uninitialize                      0x00000cfc   Section        0  ssp_lpc17xx.o(i.SSP1_Uninitialize)
    SSP1_Uninitialize                        0x00000cfd   Thumb Code    10  ssp_lpc17xx.o(i.SSP1_Uninitialize)
    i.SSP_GetCapabilities                    0x00000d0c   Section        0  ssp_lpc17xx.o(i.SSP_GetCapabilities)
    SSP_GetCapabilities                      0x00000d0d   Thumb Code     6  ssp_lpc17xx.o(i.SSP_GetCapabilities)
    i.SSP_GetVersion                         0x00000d18   Section        0  ssp_lpc17xx.o(i.SSP_GetVersion)
    SSP_GetVersion                           0x00000d19   Thumb Code    10  ssp_lpc17xx.o(i.SSP_GetVersion)
    i.SSPx_Control                           0x00000d28   Section        0  ssp_lpc17xx.o(i.SSPx_Control)
    SSPx_Control                             0x00000d29   Thumb Code  1310  ssp_lpc17xx.o(i.SSPx_Control)
    i.SSPx_GPDMA_Rx_SignalEvent              0x00001246   Section        0  ssp_lpc17xx.o(i.SSPx_GPDMA_Rx_SignalEvent)
    i.SSPx_GPDMA_Tx_SignalEvent              0x0000127c   Section        0  ssp_lpc17xx.o(i.SSPx_GPDMA_Tx_SignalEvent)
    i.SSPx_GetDataCount                      0x00001298   Section        0  ssp_lpc17xx.o(i.SSPx_GetDataCount)
    SSPx_GetDataCount                        0x00001299   Thumb Code    44  ssp_lpc17xx.o(i.SSPx_GetDataCount)
    i.SSPx_GetStatus                         0x000012c4   Section        0  ssp_lpc17xx.o(i.SSPx_GetStatus)
    SSPx_GetStatus                           0x000012c5   Thumb Code    90  ssp_lpc17xx.o(i.SSPx_GetStatus)
    i.SSPx_IRQHandler                        0x0000131e   Section        0  ssp_lpc17xx.o(i.SSPx_IRQHandler)
    SSPx_IRQHandler                          0x0000131f   Thumb Code   260  ssp_lpc17xx.o(i.SSPx_IRQHandler)
    i.SSPx_Initialize                        0x00001422   Section        0  ssp_lpc17xx.o(i.SSPx_Initialize)
    SSPx_Initialize                          0x00001423   Thumb Code   160  ssp_lpc17xx.o(i.SSPx_Initialize)
    i.SSPx_PowerControl                      0x000014c4   Section        0  ssp_lpc17xx.o(i.SSPx_PowerControl)
    SSPx_PowerControl                        0x000014c5   Thumb Code   438  ssp_lpc17xx.o(i.SSPx_PowerControl)
    i.SSPx_Receive                           0x00001680   Section        0  ssp_lpc17xx.o(i.SSPx_Receive)
    SSPx_Receive                             0x00001681   Thumb Code   352  ssp_lpc17xx.o(i.SSPx_Receive)
    i.SSPx_Send                              0x000017e4   Section        0  ssp_lpc17xx.o(i.SSPx_Send)
    SSPx_Send                                0x000017e5   Thumb Code   344  ssp_lpc17xx.o(i.SSPx_Send)
    i.SSPx_Transfer                          0x00001940   Section        0  ssp_lpc17xx.o(i.SSPx_Transfer)
    SSPx_Transfer                            0x00001941   Thumb Code   394  ssp_lpc17xx.o(i.SSPx_Transfer)
    i.SSPx_Uninitialize                      0x00001aca   Section        0  ssp_lpc17xx.o(i.SSPx_Uninitialize)
    SSPx_Uninitialize                        0x00001acb   Thumb Code   104  ssp_lpc17xx.o(i.SSPx_Uninitialize)
    i.Set_Channel_active_flag                0x00001b34   Section        0  gpdma_lpc17xx.o(i.Set_Channel_active_flag)
    Set_Channel_active_flag                  0x00001b35   Thumb Code    50  gpdma_lpc17xx.o(i.Set_Channel_active_flag)
    i.SystemInit                             0x00001b6c   Section        0  system_lpc17xx.o(i.SystemInit)
    i.__NVIC_ClearPendingIRQ                 0x00001cac   Section        0  ssp_lpc17xx.o(i.__NVIC_ClearPendingIRQ)
    __NVIC_ClearPendingIRQ                   0x00001cad   Thumb Code    22  ssp_lpc17xx.o(i.__NVIC_ClearPendingIRQ)
    i.__NVIC_ClearPendingIRQ                 0x00001cc8   Section        0  gpdma_lpc17xx.o(i.__NVIC_ClearPendingIRQ)
    __NVIC_ClearPendingIRQ                   0x00001cc9   Thumb Code    22  gpdma_lpc17xx.o(i.__NVIC_ClearPendingIRQ)
    i._init_box                              0x00001ce4   Section        0  rt_membox.o(i._init_box)
    i._mutex_acquire                         0x00001d2c   Section        0  rtx_conf_cm.o(i._mutex_acquire)
    __tagsym$$used                           0x00001d2d   Number         0  rtx_conf_cm.o(i._mutex_acquire)
    i._mutex_release                         0x00001d4c   Section        0  rtx_conf_cm.o(i._mutex_release)
    __tagsym$$used                           0x00001d4d   Number         0  rtx_conf_cm.o(i._mutex_release)
    i.copy_to_lcd                            0x00001d68   Section        0  lcd.o(i.copy_to_lcd)
    i.dbg_init                               0x00001e10   Section        0  hal_cm.o(i.dbg_init)
    i.dbg_task_notify                        0x00001e40   Section        0  hal_cm.o(i.dbg_task_notify)
    i.dbg_task_switch                        0x00001e60   Section        0  hal_cm.o(i.dbg_task_switch)
    i.init_SPI                               0x00001e70   Section        0  lcd.o(i.init_SPI)
    i.isrMessageGet                          0x00001f08   Section        0  rt_cmsis.o(i.isrMessageGet)
    i.isrMessagePut                          0x00001f32   Section        0  rt_cmsis.o(i.isrMessagePut)
    i.isrSignalSet                           0x00001f5e   Section        0  rt_cmsis.o(i.isrSignalSet)
    i.isr_evt_set                            0x00001f84   Section        0  rt_event.o(i.isr_evt_set)
    i.isr_mbx_receive                        0x00001fac   Section        0  rt_mailbox.o(i.isr_mbx_receive)
    i.isr_mbx_send                           0x00002002   Section        0  rt_mailbox.o(i.isr_mbx_send)
    i.limpiaBuffer                           0x00002010   Section        0  lcd.o(i.limpiaBuffer)
    i.main                                   0x00002048   Section        0  main.o(i.main)
    i.masLinea                               0x00002060   Section        0  lcd.o(i.masLinea)
    i.masLinea2                              0x00002078   Section        0  lcd.o(i.masLinea2)
    i.menosLinea                             0x0000208c   Section        0  lcd.o(i.menosLinea)
    i.menosLinea2                            0x000020a4   Section        0  lcd.o(i.menosLinea2)
    i.osDelay                                0x000020b8   Section        0  rt_cmsis.o(i.osDelay)
    i.osKernelInitialize                     0x000020d0   Section        0  rt_cmsis.o(i.osKernelInitialize)
    i.osKernelStart                          0x000020f4   Section        0  rt_cmsis.o(i.osKernelStart)
    i.osMessageGet                           0x00002160   Section        0  rt_cmsis.o(i.osMessageGet)
    i.osSignalSet                            0x00002178   Section        0  rt_cmsis.o(i.osSignalSet)
    i.osSignalWait                           0x00002190   Section        0  rt_cmsis.o(i.osSignalWait)
    i.osThreadCreate                         0x000021a8   Section        0  rt_cmsis.o(i.osThreadCreate)
    i.osThreadExit                           0x000021d4   Section        0  rt_cmsis.o(i.osThreadExit)
    i.osThreadYield                          0x000021ec   Section        0  rt_cmsis.o(i.osThreadYield)
    i.osTimerCall                            0x00002204   Section        0  rt_cmsis.o(i.osTimerCall)
    i.osTimerThread                          0x00002210   Section        0  rt_cmsis.o(i.osTimerThread)
    i.os_error                               0x0000223c   Section        0  rtx_conf_cm.o(i.os_error)
    i.os_idle_demon                          0x0000225e   Section        0  rtx_conf_cm.o(i.os_idle_demon)
    i.os_tick_init                           0x00002264   Section        0  rt_system.o(i.os_tick_init)
    i.retraso                                0x0000228c   Section        0  lcd.o(i.retraso)
    i.rt_alloc_box                           0x000022dc   Section        0  rt_membox.o(i.rt_alloc_box)
    i.rt_alloc_mem                           0x000022f6   Section        0  rt_memory.o(i.rt_alloc_mem)
    i.rt_block                               0x00002334   Section        0  rt_task.o(i.rt_block)
    i.rt_chk_robin                           0x0000236c   Section        0  rt_robin.o(i.rt_chk_robin)
    i.rt_dec_dly                             0x000023b4   Section        0  rt_list.o(i.rt_dec_dly)
    i.rt_dispatch                            0x00002424   Section        0  rt_task.o(i.rt_dispatch)
    i.rt_dly_wait                            0x00002468   Section        0  rt_time.o(i.rt_dly_wait)
    i.rt_evt_psh                             0x00002470   Section        0  rt_event.o(i.rt_evt_psh)
    i.rt_evt_set                             0x000024c0   Section        0  rt_event.o(i.rt_evt_set)
    i.rt_evt_wait                            0x0000251c   Section        0  rt_event.o(i.rt_evt_wait)
    i.rt_free_box                            0x00002558   Section        0  rt_membox.o(i.rt_free_box)
    i.rt_free_mem                            0x00002584   Section        0  rt_memory.o(i.rt_free_mem)
    i.rt_get_first                           0x000025ac   Section        0  rt_list.o(i.rt_get_first)
    i.rt_get_same_rdy_prio                   0x000025d4   Section        0  rt_list.o(i.rt_get_same_rdy_prio)
    i.rt_id2obj                              0x000025f8   Section        0  rt_cmsis.o(i.rt_id2obj)
    rt_id2obj                                0x000025f9   Thumb Code     8  rt_cmsis.o(i.rt_id2obj)
    i.rt_init_context                        0x00002600   Section        0  rt_task.o(i.rt_init_context)
    rt_init_context                          0x00002601   Thumb Code    66  rt_task.o(i.rt_init_context)
    i.rt_init_mem                            0x00002648   Section        0  rt_memory.o(i.rt_init_mem)
    i.rt_init_robin                          0x00002664   Section        0  rt_robin.o(i.rt_init_robin)
    i.rt_init_stack                          0x0000267c   Section        0  hal_cm.o(i.rt_init_stack)
    i.rt_mbx_check                           0x000026fc   Section        0  rt_mailbox.o(i.rt_mbx_check)
    i.rt_mbx_init                            0x00002704   Section        0  rt_mailbox.o(i.rt_mbx_init)
    i.rt_mbx_psh                             0x00002720   Section        0  rt_mailbox.o(i.rt_mbx_psh)
    i.rt_mbx_wait                            0x00002810   Section        0  rt_mailbox.o(i.rt_mbx_wait)
    i.rt_ms2tick                             0x000028c4   Section        0  rt_cmsis.o(i.rt_ms2tick)
    rt_ms2tick                               0x000028c5   Thumb Code    58  rt_cmsis.o(i.rt_ms2tick)
    i.rt_mut_release                         0x00002908   Section        0  rt_mutex.o(i.rt_mut_release)
    i.rt_mut_wait                            0x000029e0   Section        0  rt_mutex.o(i.rt_mut_wait)
    i.rt_pop_req                             0x00002a58   Section        0  rt_system.o(i.rt_pop_req)
    i.rt_psh_req                             0x00002ad4   Section        0  rt_system.o(i.rt_psh_req)
    i.rt_psq_enq                             0x00002af4   Section        0  rt_list.o(i.rt_psq_enq)
    i.rt_put_dly                             0x00002b50   Section        0  rt_list.o(i.rt_put_dly)
    i.rt_put_prio                            0x00002b98   Section        0  rt_list.o(i.rt_put_prio)
    i.rt_put_rdy_first                       0x00002bd0   Section        0  rt_list.o(i.rt_put_rdy_first)
    i.rt_resort_prio                         0x00002be4   Section        0  rt_list.o(i.rt_resort_prio)
    i.rt_ret_val                             0x00002c18   Section        0  hal_cm.o(i.rt_ret_val)
    i.rt_ret_val2                            0x00002c1e   Section        0  hal_cm.o(i.rt_ret_val2)
    i.rt_rmv_dly                             0x00002c26   Section        0  rt_list.o(i.rt_rmv_dly)
    i.rt_rmv_list                            0x00002c50   Section        0  rt_list.o(i.rt_rmv_list)
    i.rt_sem_psh                             0x00002c80   Section        0  rt_semaphore.o(i.rt_sem_psh)
    i.rt_stk_check                           0x00002cb4   Section        0  rt_system.o(i.rt_stk_check)
    i.rt_switch_req                          0x00002cd8   Section        0  rt_task.o(i.rt_switch_req)
    i.rt_sys_init                            0x00002d00   Section        0  rt_task.o(i.rt_sys_init)
    i.rt_sys_start                           0x00002dcc   Section        0  rt_task.o(i.rt_sys_start)
    i.rt_systick                             0x00002e44   Section        0  rt_system.o(i.rt_systick)
    i.rt_tid2ptcb                            0x00002e84   Section        0  rt_cmsis.o(i.rt_tid2ptcb)
    rt_tid2ptcb                              0x00002e85   Thumb Code    18  rt_cmsis.o(i.rt_tid2ptcb)
    i.rt_timer_insert                        0x00002e98   Section        0  rt_cmsis.o(i.rt_timer_insert)
    rt_timer_insert                          0x00002e99   Thumb Code    48  rt_cmsis.o(i.rt_timer_insert)
    i.rt_tsk_create                          0x00002ecc   Section        0  rt_task.o(i.rt_tsk_create)
    i.rt_tsk_delete                          0x00002f54   Section        0  rt_task.o(i.rt_tsk_delete)
    i.rt_tsk_pass                            0x000030d0   Section        0  rt_task.o(i.rt_tsk_pass)
    i.rt_tsk_prio                            0x00003100   Section        0  rt_task.o(i.rt_tsk_prio)
    i.rt_tsk_self                            0x0000317c   Section        0  rt_task.o(i.rt_tsk_self)
    i.svcDelay                               0x0000318c   Section        0  rt_cmsis.o(i.svcDelay)
    i.svcKernelInitialize                    0x000031a0   Section        0  rt_cmsis.o(i.svcKernelInitialize)
    i.svcKernelStart                         0x00003210   Section        0  rt_cmsis.o(i.svcKernelStart)
    i.svcMessageCreate                       0x00003258   Section        0  rt_cmsis.o(i.svcMessageCreate)
    i.svcMessageGet                          0x0000327c   Section        0  rt_cmsis.o(i.svcMessageGet)
    i.svcSignalSet                           0x000032b6   Section        0  rt_cmsis.o(i.svcSignalSet)
    i.svcSignalWait                          0x000032dc   Section        0  rt_cmsis.o(i.svcSignalWait)
    i.svcThreadCreate                        0x00003330   Section        0  rt_cmsis.o(i.svcThreadCreate)
    i.svcThreadGetId                         0x0000339c   Section        0  rt_cmsis.o(i.svcThreadGetId)
    i.svcThreadTerminate                     0x000033b8   Section        0  rt_cmsis.o(i.svcThreadTerminate)
    i.svcThreadYield                         0x000033f0   Section        0  rt_cmsis.o(i.svcThreadYield)
    i.svcTimerCall                           0x000033fa   Section        0  rt_cmsis.o(i.svcTimerCall)
    i.sysTimerTick                           0x00003414   Section        0  rt_cmsis.o(i.sysTimerTick)
    i.wr_cmd                                 0x00003470   Section        0  lcd.o(i.wr_cmd)
    i.wr_data                                0x000034a4   Section        0  lcd.o(i.wr_data)
    x$fpl$dcmpinf                            0x000034d8   Section       24  dcmpi.o(x$fpl$dcmpinf)
    x$fpl$dflt                               0x000034f0   Section       46  dflt_clz.o(x$fpl$dflt)
    x$fpl$dfltu                              0x0000351e   Section       38  dflt_clz.o(x$fpl$dfltu)
    x$fpl$dleqf                              0x00003544   Section      120  dleqf.o(x$fpl$dleqf)
    x$fpl$dmul                               0x000035bc   Section      340  dmul.o(x$fpl$dmul)
    x$fpl$dnaninf                            0x00003710   Section      156  dnaninf.o(x$fpl$dnaninf)
    x$fpl$dretinf                            0x000037ac   Section       12  dretinf.o(x$fpl$dretinf)
    .constdata                               0x000037b8   Section       16  thread.o(.constdata)
    x$fpl$usenofp                            0x000037b8   Section        0  usenofp.o(x$fpl$usenofp)
    .constdata                               0x000037c8   Section      104  rtx_conf_cm.o(.constdata)
    __tagsym$$used                           0x000037e4   Number         0  rtx_conf_cm.o(.constdata)
    __tagsym$$used                           0x000037e8   Number         0  rtx_conf_cm.o(.constdata)
    __tagsym$$used                           0x000037ec   Number         0  rtx_conf_cm.o(.constdata)
    __tagsym$$used                           0x000037f0   Number         0  rtx_conf_cm.o(.constdata)
    .constdata                               0x00003830   Section      124  ssp_lpc17xx.o(.constdata)
    DriverVersion                            0x00003830   Data           4  ssp_lpc17xx.o(.constdata)
    DriverCapabilities                       0x00003834   Data           4  ssp_lpc17xx.o(.constdata)
    SSP1_Resources                           0x00003838   Data          72  ssp_lpc17xx.o(.constdata)
    .bss                                     0x10000000   Section    15616  rtx_conf_cm.o(.bss)
    std_libspace                             0x100039e0   Data         672  rtx_conf_cm.o(.bss)
    std_libmutex                             0x10003c80   Data         128  rtx_conf_cm.o(.bss)
    .data                                    0x2007c000   Section       16  thread.o(.data)
    .data                                    0x2007c010   Section       24  lcd.o(.data)
    .data                                    0x2007c028   Section       20  rtx_conf_cm.o(.data)
    nr_mutex                                 0x2007c038   Data           4  rtx_conf_cm.o(.data)
    .data                                    0x2007c03c   Section       16  ssp_lpc17xx.o(.data)
    SSP1_pin_sck                             0x2007c03c   Data           2  ssp_lpc17xx.o(.data)
    SSP1_pin_miso                            0x2007c03e   Data           2  ssp_lpc17xx.o(.data)
    SSP1_pin_mosi                            0x2007c040   Data           2  ssp_lpc17xx.o(.data)
    SSP1_pin_ssel                            0x2007c042   Data           2  ssp_lpc17xx.o(.data)
    dummy_data                               0x2007c044   Data           4  ssp_lpc17xx.o(.data)
    dummy_data                               0x2007c048   Data           4  ssp_lpc17xx.o(.data)
    .data                                    0x2007c04c   Section        8  gpdma_lpc17xx.o(.data)
    Channel_active                           0x2007c04c   Data           4  gpdma_lpc17xx.o(.data)
    Init_cnt                                 0x2007c050   Data           4  gpdma_lpc17xx.o(.data)
    .data                                    0x2007c054   Section        4  system_lpc17xx.o(.data)
    .data                                    0x2007c058   Section        8  rt_cmsis.o(.data)
    .data                                    0x2007c060   Section        8  rt_task.o(.data)
    .data                                    0x2007c068   Section        8  rt_system.o(.data)
    os_lock                                  0x2007c068   Data           1  rt_system.o(.data)
    os_psh_flag                              0x2007c069   Data           1  rt_system.o(.data)
    pend_flags                               0x2007c06a   Data           1  rt_system.o(.data)
    .data                                    0x2007c070   Section        4  rt_time.o(.data)
    .data                                    0x2007c074   Section        8  rt_robin.o(.data)
    .data                                    0x2007c07c   Section        1  hal_cm.o(.data)
    .bss                                     0x2007c080   Section      512  lcd.o(.bss)
    .bss                                     0x2007c280   Section       40  ssp_lpc17xx.o(.bss)
    SSP1_Info                                0x2007c280   Data          12  ssp_lpc17xx.o(.bss)
    SSP1_Xfer                                0x2007c28c   Data          28  ssp_lpc17xx.o(.bss)
    .bss                                     0x2007c2a8   Section       64  gpdma_lpc17xx.o(.bss)
    GPDMA_cb_event                           0x2007c2a8   Data          32  gpdma_lpc17xx.o(.bss)
    Channel_transfer_sz                      0x2007c2c8   Data          32  gpdma_lpc17xx.o(.bss)
    .bss                                     0x2007c2e8   Section       52  rt_task.o(.bss)
    .bss                                     0x2007c31c   Section       48  rt_list.o(.bss)
    .bss                                     0x2007c34c   Section       96  libspace.o(.bss)
    HEAP                                     0x2007c3b0   Section        0  startup_lpc17xx.o(HEAP)
    STACK                                    0x2007c3b0   Section      512  startup_lpc17xx.o(STACK)
    Heap_Mem                                 0x2007c3b0   Data           0  startup_lpc17xx.o(HEAP)
    Stack_Mem                                0x2007c3b0   Data         512  startup_lpc17xx.o(STACK)
    __initial_sp                             0x2007c5b0   Data           0  startup_lpc17xx.o(STACK)

    Global Symbols

    Symbol Name                              Value     Ov Type        Size  Object(Section)

    BuildAttributes$$THM_ISAv4$P$D$K$B$S$PE$A:L22UL41UL21$X:L11$S22US41US21$IEEE1$IW$USESV6$~STKCKD$USESV7$~SHL$OTIME$ROPI$IEEEJ$EBA8$UX$STANDARDLIB$REQ8$PRES8$EABIv2 0x00000000   Number         0  anon$$obj.o ABSOLUTE
    __ARM_use_no_argv                        0x00000000   Number         0  main.o ABSOLUTE
    __Vectors                                0x00000000   Data           4  startup_lpc17xx.o(RESET)
    __ARM_exceptions_init                     - Undefined Weak Reference
    __alloca_initialize                       - Undefined Weak Reference
    __arm_preinit_                            - Undefined Weak Reference
    __cpp_initialize__aeabi_                  - Undefined Weak Reference
    __cxa_finalize                            - Undefined Weak Reference
    __sigvec_lookup                           - Undefined Weak Reference
    _atexit_init                              - Undefined Weak Reference
    _call_atexit_fns                          - Undefined Weak Reference
    _clock_init                               - Undefined Weak Reference
    _fp_trap_init                             - Undefined Weak Reference
    _fp_trap_shutdown                         - Undefined Weak Reference
    _get_lc_collate                           - Undefined Weak Reference
    _get_lc_ctype                             - Undefined Weak Reference
    _get_lc_monetary                          - Undefined Weak Reference
    _get_lc_time                              - Undefined Weak Reference
    _getenv_init                              - Undefined Weak Reference
    _handle_redirection                       - Undefined Weak Reference
    _init_alloc                               - Undefined Weak Reference
    _init_user_alloc                          - Undefined Weak Reference
    _initio                                   - Undefined Weak Reference
    _printf_post_padding                      - Undefined Weak Reference
    _printf_pre_padding                       - Undefined Weak Reference
    _printf_truncate_signed                   - Undefined Weak Reference
    _printf_truncate_unsigned                 - Undefined Weak Reference
    _rand_init                                - Undefined Weak Reference
    _signal_finish                            - Undefined Weak Reference
    _signal_init                              - Undefined Weak Reference
    _terminate_alloc                          - Undefined Weak Reference
    _terminate_user_alloc                     - Undefined Weak Reference
    _terminateio                              - Undefined Weak Reference
    __main                                   0x000000cd   Thumb Code     8  __main.o(!!!main)
    __scatterload                            0x000000d5   Thumb Code     0  __scatter.o(!!!scatter)
    __scatterload_rt2                        0x000000d5   Thumb Code    44  __scatter.o(!!!scatter)
    __scatterload_rt2_thumb_only             0x000000d5   Thumb Code     0  __scatter.o(!!!scatter)
    __scatterload_null                       0x000000e3   Thumb Code     0  __scatter.o(!!!scatter)
    __scatterload_copy                       0x00000109   Thumb Code    26  __scatter_copy.o(!!handler_copy)
    __scatterload_zeroinit                   0x00000125   Thumb Code    28  __scatter_zi.o(!!handler_zi)
    __rt_lib_init                            0x00000141   Thumb Code     0  libinit.o(.ARM.Collect$$libinit$$00000000)
    __rt_lib_init_alloca_1                   0x00000143   Thumb Code     0  libinit2.o(.ARM.Collect$$libinit$$0000002E)
    __rt_lib_init_argv_1                     0x00000143   Thumb Code     0  libinit2.o(.ARM.Collect$$libinit$$0000002C)
    __rt_lib_init_atexit_1                   0x00000143   Thumb Code     0  libinit2.o(.ARM.Collect$$libinit$$0000001B)
    __rt_lib_init_clock_1                    0x00000143   Thumb Code     0  libinit2.o(.ARM.Collect$$libinit$$00000021)
    __rt_lib_init_cpp_1                      0x00000143   Thumb Code     0  libinit2.o(.ARM.Collect$$libinit$$00000032)
    __rt_lib_init_exceptions_1               0x00000143   Thumb Code     0  libinit2.o(.ARM.Collect$$libinit$$00000030)
    __rt_lib_init_fp_1                       0x00000143   Thumb Code     0  libinit2.o(.ARM.Collect$$libinit$$00000002)
    __rt_lib_init_fp_trap_1                  0x00000143   Thumb Code     0  libinit2.o(.ARM.Collect$$libinit$$0000001F)
    __rt_lib_init_getenv_1                   0x00000143   Thumb Code     0  libinit2.o(.ARM.Collect$$libinit$$00000023)
    __rt_lib_init_heap_1                     0x00000143   Thumb Code     0  libinit2.o(.ARM.Collect$$libinit$$0000000A)
    __rt_lib_init_lc_collate_1               0x00000143   Thumb Code     0  libinit2.o(.ARM.Collect$$libinit$$00000011)
    __rt_lib_init_lc_ctype_1                 0x00000143   Thumb Code     0  libinit2.o(.ARM.Collect$$libinit$$00000013)
    __rt_lib_init_lc_monetary_1              0x00000143   Thumb Code     0  libinit2.o(.ARM.Collect$$libinit$$00000015)
    __rt_lib_init_lc_numeric_1               0x00000143   Thumb Code     0  libinit2.o(.ARM.Collect$$libinit$$00000017)
    __rt_lib_init_lc_time_1                  0x00000143   Thumb Code     0  libinit2.o(.ARM.Collect$$libinit$$00000019)
    __rt_lib_init_preinit_1                  0x00000143   Thumb Code     0  libinit2.o(.ARM.Collect$$libinit$$00000004)
    __rt_lib_init_rand_1                     0x00000143   Thumb Code     0  libinit2.o(.ARM.Collect$$libinit$$0000000E)
    __rt_lib_init_return                     0x00000143   Thumb Code     0  libinit2.o(.ARM.Collect$$libinit$$00000033)
    __rt_lib_init_signal_1                   0x00000143   Thumb Code     0  libinit2.o(.ARM.Collect$$libinit$$0000001D)
    __rt_lib_init_stdio_1                    0x00000143   Thumb Code     0  libinit2.o(.ARM.Collect$$libinit$$00000025)
    __rt_lib_init_user_alloc_1               0x00000143   Thumb Code     0  libinit2.o(.ARM.Collect$$libinit$$0000000C)
    __rt_lib_shutdown                        0x00000145   Thumb Code     0  libshutdown.o(.ARM.Collect$$libshutdown$$00000000)
    __rt_lib_shutdown_cpp_1                  0x00000147   Thumb Code     0  libshutdown2.o(.ARM.Collect$$libshutdown$$00000002)
    __rt_lib_shutdown_fp_trap_1              0x00000147   Thumb Code     0  libshutdown2.o(.ARM.Collect$$libshutdown$$00000007)
    __rt_lib_shutdown_heap_1                 0x00000147   Thumb Code     0  libshutdown2.o(.ARM.Collect$$libshutdown$$0000000F)
    __rt_lib_shutdown_return                 0x00000147   Thumb Code     0  libshutdown2.o(.ARM.Collect$$libshutdown$$00000010)
    __rt_lib_shutdown_signal_1               0x00000147   Thumb Code     0  libshutdown2.o(.ARM.Collect$$libshutdown$$0000000A)
    __rt_lib_shutdown_stdio_1                0x00000147   Thumb Code     0  libshutdown2.o(.ARM.Collect$$libshutdown$$00000004)
    __rt_lib_shutdown_user_alloc_1           0x00000147   Thumb Code     0  libshutdown2.o(.ARM.Collect$$libshutdown$$0000000C)
    __rt_entry                               0x00000149   Thumb Code     0  __rtentry.o(.ARM.Collect$$rtentry$$00000000)
    __rt_entry_presh_1                       0x00000149   Thumb Code     0  __rtentry2.o(.ARM.Collect$$rtentry$$00000002)
    __rt_entry_sh                            0x00000149   Thumb Code     0  __rtentry4.o(.ARM.Collect$$rtentry$$00000004)
    __rt_entry_li                            0x0000014f   Thumb Code     0  __rtentry2.o(.ARM.Collect$$rtentry$$0000000A)
    __rt_entry_postsh_1                      0x0000014f   Thumb Code     0  __rtentry2.o(.ARM.Collect$$rtentry$$00000009)
    __rt_entry_postli_1                      0x00000153   Thumb Code     0  __rtentry2.o(.ARM.Collect$$rtentry$$0000000B)
    __rt_entry_main                          0x0000015b   Thumb Code     0  __rtentry2.o(.ARM.Collect$$rtentry$$0000000D)
    __rt_exit                                0x00000163   Thumb Code     0  rtexit.o(.ARM.Collect$$rtexit$$00000000)
    __rt_exit_ls                             0x00000165   Thumb Code     0  rtexit2.o(.ARM.Collect$$rtexit$$00000003)
    __rt_exit_prels_1                        0x00000165   Thumb Code     0  rtexit2.o(.ARM.Collect$$rtexit$$00000002)
    __rt_exit_exit                           0x00000169   Thumb Code     0  rtexit2.o(.ARM.Collect$$rtexit$$00000004)
    _platform_post_lib_init                  0x00000171   Thumb Code    24  rtx_conf_cm.o(.emb_text)
    rt_set_PSP                               0x0000018d   Thumb Code     6  hal_cm3.o(.emb_text)
    rt_get_PSP                               0x00000193   Thumb Code     6  hal_cm3.o(.emb_text)
    os_set_env                               0x00000199   Thumb Code    24  hal_cm3.o(.emb_text)
    _alloc_box                               0x000001b5   Thumb Code    28  hal_cm3.o(.emb_text)
    _free_box                                0x000001d5   Thumb Code    28  hal_cm3.o(.emb_text)
    SVC_Handler                              0x000001f5   Thumb Code   108  hal_cm3.o(.emb_text)
    PendSV_Handler                           0x0000026d   Thumb Code    56  hal_cm3.o(.emb_text)
    SysTick_Handler                          0x000002a9   Thumb Code     8  hal_cm3.o(.emb_text)
    OS_Tick_Handler                          0x000002b1   Thumb Code    12  hal_cm3.o(.emb_text)
    Reset_Handler                            0x000002bd   Thumb Code     8  startup_lpc17xx.o(.text)
    NMI_Handler                              0x000002c5   Thumb Code     2  startup_lpc17xx.o(.text)
    HardFault_Handler                        0x000002c7   Thumb Code     2  startup_lpc17xx.o(.text)
    MemManage_Handler                        0x000002c9   Thumb Code     2  startup_lpc17xx.o(.text)
    BusFault_Handler                         0x000002cb   Thumb Code     2  startup_lpc17xx.o(.text)
    UsageFault_Handler                       0x000002cd   Thumb Code     2  startup_lpc17xx.o(.text)
    DebugMon_Handler                         0x000002d1   Thumb Code     2  startup_lpc17xx.o(.text)
    ADC_IRQHandler                           0x000002d7   Thumb Code     0  startup_lpc17xx.o(.text)
    BOD_IRQHandler                           0x000002d7   Thumb Code     0  startup_lpc17xx.o(.text)
    CANActivity_IRQHandler                   0x000002d7   Thumb Code     0  startup_lpc17xx.o(.text)
    CAN_IRQHandler                           0x000002d7   Thumb Code     0  startup_lpc17xx.o(.text)
    EINT0_IRQHandler                         0x000002d7   Thumb Code     0  startup_lpc17xx.o(.text)
    EINT1_IRQHandler                         0x000002d7   Thumb Code     0  startup_lpc17xx.o(.text)
    EINT2_IRQHandler                         0x000002d7   Thumb Code     0  startup_lpc17xx.o(.text)
    ENET_IRQHandler                          0x000002d7   Thumb Code     0  startup_lpc17xx.o(.text)
    I2C0_IRQHandler                          0x000002d7   Thumb Code     0  startup_lpc17xx.o(.text)
    I2C1_IRQHandler                          0x000002d7   Thumb Code     0  startup_lpc17xx.o(.text)
    I2C2_IRQHandler                          0x000002d7   Thumb Code     0  startup_lpc17xx.o(.text)
    I2S_IRQHandler                           0x000002d7   Thumb Code     0  startup_lpc17xx.o(.text)
    MCPWM_IRQHandler                         0x000002d7   Thumb Code     0  startup_lpc17xx.o(.text)
    PLL0_IRQHandler                          0x000002d7   Thumb Code     0  startup_lpc17xx.o(.text)
    PLL1_IRQHandler                          0x000002d7   Thumb Code     0  startup_lpc17xx.o(.text)
    PWM1_IRQHandler                          0x000002d7   Thumb Code     0  startup_lpc17xx.o(.text)
    QEI_IRQHandler                           0x000002d7   Thumb Code     0  startup_lpc17xx.o(.text)
    RIT_IRQHandler                           0x000002d7   Thumb Code     0  startup_lpc17xx.o(.text)
    RTC_IRQHandler                           0x000002d7   Thumb Code     0  startup_lpc17xx.o(.text)
    SPI_IRQHandler                           0x000002d7   Thumb Code     0  startup_lpc17xx.o(.text)
    SSP0_IRQHandler                          0x000002d7   Thumb Code     0  startup_lpc17xx.o(.text)
    TIMER0_IRQHandler                        0x000002d7   Thumb Code     0  startup_lpc17xx.o(.text)
    TIMER1_IRQHandler                        0x000002d7   Thumb Code     0  startup_lpc17xx.o(.text)
    TIMER2_IRQHandler                        0x000002d7   Thumb Code     0  startup_lpc17xx.o(.text)
    TIMER3_IRQHandler                        0x000002d7   Thumb Code     0  startup_lpc17xx.o(.text)
    UART0_IRQHandler                         0x000002d7   Thumb Code     0  startup_lpc17xx.o(.text)
    UART1_IRQHandler                         0x000002d7   Thumb Code     0  startup_lpc17xx.o(.text)
    UART2_IRQHandler                         0x000002d7   Thumb Code     0  startup_lpc17xx.o(.text)
    UART3_IRQHandler                         0x000002d7   Thumb Code     0  startup_lpc17xx.o(.text)
    USBActivity_IRQHandler                   0x000002d7   Thumb Code     0  startup_lpc17xx.o(.text)
    USB_IRQHandler                           0x000002d7   Thumb Code     0  startup_lpc17xx.o(.text)
    WDT_IRQHandler                           0x000002d7   Thumb Code     0  startup_lpc17xx.o(.text)
    __user_initial_stackheap                 0x000002d9   Thumb Code     0  startup_lpc17xx.o(.text)
    __I$use$semihosting                      0x000002f9   Thumb Code     0  use_no_semi.o(.text)
    __use_no_semihosting_swi                 0x000002f9   Thumb Code     2  use_no_semi.o(.text)
    __semihosting_library_function           0x000002fb   Thumb Code     0  indicate_semi.o(.text)
    os_tick_irqack                           0x000002fb   Thumb Code     2  rt_system.o(i.os_tick_irqack)
    __user_libspace                          0x00000301   Thumb Code     8  libspace.o(.text)
    __user_perproc_libspace                  0x00000301   Thumb Code     0  libspace.o(.text)
    exit                                     0x00000309   Thumb Code    18  exit.o(.text)
    __aeabi_memclr4                          0x0000031b   Thumb Code     0  rt_memclr_w.o(.text)
    __aeabi_memclr8                          0x0000031b   Thumb Code     0  rt_memclr_w.o(.text)
    __rt_memclr_w                            0x0000031b   Thumb Code    78  rt_memclr_w.o(.text)
    _memset_w                                0x0000031f   Thumb Code     0  rt_memclr_w.o(.text)
    __use_two_region_memory                  0x00000369   Thumb Code     2  heapauxi.o(.text)
    __rt_heap_escrow$2region                 0x0000036b   Thumb Code     2  heapauxi.o(.text)
    __rt_heap_expand$2region                 0x0000036d   Thumb Code     2  heapauxi.o(.text)
    _sys_exit                                0x00000371   Thumb Code     8  sys_exit.o(.text)
    __user_setup_stackheap                   0x0000037d   Thumb Code    74  sys_stackheap_outer.o(.text)
    SVC_Count                                0x000003c8   Data           4  svc_table.o(SVC_TABLE)
    SVC_Table                                0x000003cc   Data           0  svc_table.o(SVC_TABLE)
    DMA_IRQHandler                           0x000003ed   Thumb Code   100  gpdma_lpc17xx.o(i.DMA_IRQHandler)
    EINT3_IRQHandler                         0x00000459   Thumb Code   224  utils.o(i.EINT3_IRQHandler)
    __RL_RTX_VER                             0x00000482   Number         0  rt_system.o ABSOLUTE
    GPDMA_ChannelConfigure                   0x00000541   Thumb Code   136  gpdma_lpc17xx.o(i.GPDMA_ChannelConfigure)
    GPDMA_ChannelDisable                     0x000005d9   Thumb Code    44  gpdma_lpc17xx.o(i.GPDMA_ChannelDisable)
    GPDMA_ChannelGetCount                    0x00000609   Thumb Code    32  gpdma_lpc17xx.o(i.GPDMA_ChannelGetCount)
    GPDMA_Initialize                         0x00000631   Thumb Code   120  gpdma_lpc17xx.o(i.GPDMA_Initialize)
    GPDMA_PeripheralSelect                   0x000006bd   Thumb Code    62  gpdma_lpc17xx.o(i.GPDMA_PeripheralSelect)
    GPDMA_Uninitialize                       0x00000701   Thumb Code   116  gpdma_lpc17xx.o(i.GPDMA_Uninitialize)
    GPIO_PinWrite                            0x00000781   Thumb Code    36  gpio_lpc17xx.o(i.GPIO_PinWrite)
    GPIO_SetDir                              0x000007a9   Thumb Code    52  gpio_lpc17xx.o(i.GPIO_SetDir)
    Init_Thread                              0x00000825   Thumb Code    30  thread.o(i.Init_Thread)
    Initialize_peripherals                   0x0000084d   Thumb Code   364  utils.o(i.Initialize_peripherals)
    LCD                                      0x000009bd   Thumb Code   262  thread.o(i.LCD)
    LCD_reset                                0x00000ad1   Thumb Code    76  lcd.o(i.LCD_reset)
    PIN_Configure                            0x00000b1d   Thumb Code   246  pin_lpc17xx.o(i.PIN_Configure)
    SSP1_GPDMA_Rx_SignalEvent                0x00000c31   Thumb Code    14  ssp_lpc17xx.o(i.SSP1_GPDMA_Rx_SignalEvent)
    SSP1_GPDMA_Tx_SignalEvent                0x00000c45   Thumb Code    14  ssp_lpc17xx.o(i.SSP1_GPDMA_Tx_SignalEvent)
    SSP1_IRQHandler                          0x00000c79   Thumb Code    10  ssp_lpc17xx.o(i.SSP1_IRQHandler)
    SSPx_GPDMA_Rx_SignalEvent                0x00001247   Thumb Code    54  ssp_lpc17xx.o(i.SSPx_GPDMA_Rx_SignalEvent)
    SSPx_GPDMA_Tx_SignalEvent                0x0000127d   Thumb Code    28  ssp_lpc17xx.o(i.SSPx_GPDMA_Tx_SignalEvent)
    SystemInit                               0x00001b6d   Thumb Code   302  system_lpc17xx.o(i.SystemInit)
    _init_box                                0x00001ce5   Thumb Code    70  rt_membox.o(i._init_box)
    _mutex_acquire                           0x00001d2d   Thumb Code    22  rtx_conf_cm.o(i._mutex_acquire)
    _mutex_release                           0x00001d4d   Thumb Code    18  rtx_conf_cm.o(i._mutex_release)
    copy_to_lcd                              0x00001d69   Thumb Code   162  lcd.o(i.copy_to_lcd)
    dbg_init                                 0x00001e11   Thumb Code    34  hal_cm.o(i.dbg_init)
    dbg_task_notify                          0x00001e41   Thumb Code    32  hal_cm.o(i.dbg_task_notify)
    dbg_task_switch                          0x00001e61   Thumb Code    16  hal_cm.o(i.dbg_task_switch)
    init_SPI                                 0x00001e71   Thumb Code   136  lcd.o(i.init_SPI)
    isrMessageGet                            0x00001f09   Thumb Code    42  rt_cmsis.o(i.isrMessageGet)
    isrMessagePut                            0x00001f33   Thumb Code    44  rt_cmsis.o(i.isrMessagePut)
    isrSignalSet                             0x00001f5f   Thumb Code    36  rt_cmsis.o(i.isrSignalSet)
    isr_evt_set                              0x00001f85   Thumb Code    34  rt_event.o(i.isr_evt_set)
    isr_mbx_receive                          0x00001fad   Thumb Code    86  rt_mailbox.o(i.isr_mbx_receive)
    isr_mbx_send                             0x00002003   Thumb Code    14  rt_mailbox.o(i.isr_mbx_send)
    limpiaBuffer                             0x00002011   Thumb Code    44  lcd.o(i.limpiaBuffer)
    main                                     0x00002049   Thumb Code    22  main.o(i.main)
    masLinea                                 0x00002061   Thumb Code    18  lcd.o(i.masLinea)
    masLinea2                                0x00002079   Thumb Code    16  lcd.o(i.masLinea2)
    menosLinea                               0x0000208d   Thumb Code    18  lcd.o(i.menosLinea)
    menosLinea2                              0x000020a5   Thumb Code    16  lcd.o(i.menosLinea2)
    osDelay                                  0x000020b9   Thumb Code    18  rt_cmsis.o(i.osDelay)
    osKernelInitialize                       0x000020d1   Thumb Code    30  rt_cmsis.o(i.osKernelInitialize)
    osKernelStart                            0x000020f5   Thumb Code    98  rt_cmsis.o(i.osKernelStart)
    osMessageGet                             0x00002161   Thumb Code    18  rt_cmsis.o(i.osMessageGet)
    osSignalSet                              0x00002179   Thumb Code    18  rt_cmsis.o(i.osSignalSet)
    osSignalWait                             0x00002191   Thumb Code    18  rt_cmsis.o(i.osSignalWait)
    osThreadCreate                           0x000021a9   Thumb Code    36  rt_cmsis.o(i.osThreadCreate)
    osThreadExit                             0x000021d5   Thumb Code    14  rt_cmsis.o(i.osThreadExit)
    osThreadYield                            0x000021ed   Thumb Code    18  rt_cmsis.o(i.osThreadYield)
    osTimerCall                              0x00002205   Thumb Code     8  rt_cmsis.o(i.osTimerCall)
    osTimerThread                            0x00002211   Thumb Code    38  rt_cmsis.o(i.osTimerThread)
    os_error                                 0x0000223d   Thumb Code    34  rtx_conf_cm.o(i.os_error)
    os_idle_demon                            0x0000225f   Thumb Code     4  rtx_conf_cm.o(i.os_idle_demon)
    os_tick_init                             0x00002265   Thumb Code    32  rt_system.o(i.os_tick_init)
    retraso                                  0x0000228d   Thumb Code    72  lcd.o(i.retraso)
    rt_alloc_box                             0x000022dd   Thumb Code    26  rt_membox.o(i.rt_alloc_box)
    rt_alloc_mem                             0x000022f7   Thumb Code    62  rt_memory.o(i.rt_alloc_mem)
    rt_block                                 0x00002335   Thumb Code    48  rt_task.o(i.rt_block)
    rt_chk_robin                             0x0000236d   Thumb Code    60  rt_robin.o(i.rt_chk_robin)
    rt_dec_dly                               0x000023b5   Thumb Code   102  rt_list.o(i.rt_dec_dly)
    rt_dispatch                              0x00002425   Thumb Code    60  rt_task.o(i.rt_dispatch)
    rt_dly_wait                              0x00002469   Thumb Code     6  rt_time.o(i.rt_dly_wait)
    rt_evt_psh                               0x00002471   Thumb Code    76  rt_event.o(i.rt_evt_psh)
    rt_evt_set                               0x000024c1   Thumb Code    88  rt_event.o(i.rt_evt_set)
    rt_evt_wait                              0x0000251d   Thumb Code    56  rt_event.o(i.rt_evt_wait)
    rt_free_box                              0x00002559   Thumb Code    44  rt_membox.o(i.rt_free_box)
    rt_free_mem                              0x00002585   Thumb Code    40  rt_memory.o(i.rt_free_mem)
    rt_get_first                             0x000025ad   Thumb Code    40  rt_list.o(i.rt_get_first)
    rt_get_same_rdy_prio                     0x000025d5   Thumb Code    26  rt_list.o(i.rt_get_same_rdy_prio)
    rt_init_mem                              0x00002649   Thumb Code    26  rt_memory.o(i.rt_init_mem)
    rt_init_robin                            0x00002665   Thumb Code    14  rt_robin.o(i.rt_init_robin)
    rt_init_stack                            0x0000267d   Thumb Code   118  hal_cm.o(i.rt_init_stack)
    rt_mbx_check                             0x000026fd   Thumb Code     8  rt_mailbox.o(i.rt_mbx_check)
    rt_mbx_init                              0x00002705   Thumb Code    26  rt_mailbox.o(i.rt_mbx_init)
    rt_mbx_psh                               0x00002721   Thumb Code   236  rt_mailbox.o(i.rt_mbx_psh)
    rt_mbx_wait                              0x00002811   Thumb Code   174  rt_mailbox.o(i.rt_mbx_wait)
    rt_mut_release                           0x00002909   Thumb Code   208  rt_mutex.o(i.rt_mut_release)
    rt_mut_wait                              0x000029e1   Thumb Code   114  rt_mutex.o(i.rt_mut_wait)
    rt_pop_req                               0x00002a59   Thumb Code   112  rt_system.o(i.rt_pop_req)
    rt_psh_req                               0x00002ad5   Thumb Code    22  rt_system.o(i.rt_psh_req)
    rt_psq_enq                               0x00002af5   Thumb Code    88  rt_list.o(i.rt_psq_enq)
    rt_put_dly                               0x00002b51   Thumb Code    68  rt_list.o(i.rt_put_dly)
    rt_put_prio                              0x00002b99   Thumb Code    54  rt_list.o(i.rt_put_prio)
    rt_put_rdy_first                         0x00002bd1   Thumb Code    14  rt_list.o(i.rt_put_rdy_first)
    rt_resort_prio                           0x00002be5   Thumb Code    46  rt_list.o(i.rt_resort_prio)
    rt_ret_val                               0x00002c19   Thumb Code     6  hal_cm.o(i.rt_ret_val)
    rt_ret_val2                              0x00002c1f   Thumb Code     8  hal_cm.o(i.rt_ret_val2)
    rt_rmv_dly                               0x00002c27   Thumb Code    40  rt_list.o(i.rt_rmv_dly)
    rt_rmv_list                              0x00002c51   Thumb Code    44  rt_list.o(i.rt_rmv_list)
    rt_sem_psh                               0x00002c81   Thumb Code    48  rt_semaphore.o(i.rt_sem_psh)
    rt_stk_check                             0x00002cb5   Thumb Code    28  rt_system.o(i.rt_stk_check)
    rt_switch_req                            0x00002cd9   Thumb Code    30  rt_task.o(i.rt_switch_req)
    rt_sys_init                              0x00002d01   Thumb Code   138  rt_task.o(i.rt_sys_init)
    rt_sys_start                             0x00002dcd   Thumb Code   110  rt_task.o(i.rt_sys_start)
    rt_systick                               0x00002e45   Thumb Code    50  rt_system.o(i.rt_systick)
    rt_tsk_create                            0x00002ecd   Thumb Code   118  rt_task.o(i.rt_tsk_create)
    rt_tsk_delete                            0x00002f55   Thumb Code   352  rt_task.o(i.rt_tsk_delete)
    rt_tsk_pass                              0x000030d1   Thumb Code    38  rt_task.o(i.rt_tsk_pass)
    rt_tsk_prio                              0x00003101   Thumb Code   108  rt_task.o(i.rt_tsk_prio)
    rt_tsk_self                              0x0000317d   Thumb Code    12  rt_task.o(i.rt_tsk_self)
    svcDelay                                 0x0000318d   Thumb Code    18  rt_cmsis.o(i.svcDelay)
    svcKernelInitialize                      0x000031a1   Thumb Code    80  rt_cmsis.o(i.svcKernelInitialize)
    svcKernelStart                           0x00003211   Thumb Code    62  rt_cmsis.o(i.svcKernelStart)
    svcMessageCreate                         0x00003259   Thumb Code    36  rt_cmsis.o(i.svcMessageCreate)
    svcMessageGet                            0x0000327d   Thumb Code    58  rt_cmsis.o(i.svcMessageGet)
    svcSignalSet                             0x000032b7   Thumb Code    36  rt_cmsis.o(i.svcSignalSet)
    svcSignalWait                            0x000032dd   Thumb Code    80  rt_cmsis.o(i.svcSignalWait)
    svcThreadCreate                          0x00003331   Thumb Code    96  rt_cmsis.o(i.svcThreadCreate)
    svcThreadGetId                           0x0000339d   Thumb Code    22  rt_cmsis.o(i.svcThreadGetId)
    svcThreadTerminate                       0x000033b9   Thumb Code    50  rt_cmsis.o(i.svcThreadTerminate)
    svcThreadYield                           0x000033f1   Thumb Code    10  rt_cmsis.o(i.svcThreadYield)
    svcTimerCall                             0x000033fb   Thumb Code    24  rt_cmsis.o(i.svcTimerCall)
    sysTimerTick                             0x00003415   Thumb Code    84  rt_cmsis.o(i.sysTimerTick)
    wr_cmd                                   0x00003471   Thumb Code    46  lcd.o(i.wr_cmd)
    wr_data                                  0x000034a5   Thumb Code    46  lcd.o(i.wr_data)
    __fpl_dcmp_Inf                           0x000034d9   Thumb Code    24  dcmpi.o(x$fpl$dcmpinf)
    __aeabi_i2d                              0x000034f1   Thumb Code     0  dflt_clz.o(x$fpl$dflt)
    _dflt                                    0x000034f1   Thumb Code    46  dflt_clz.o(x$fpl$dflt)
    __aeabi_ui2d                             0x0000351f   Thumb Code     0  dflt_clz.o(x$fpl$dfltu)
    _dfltu                                   0x0000351f   Thumb Code    38  dflt_clz.o(x$fpl$dfltu)
    __aeabi_cdcmple                          0x00003545   Thumb Code     0  dleqf.o(x$fpl$dleqf)
    _dcmple                                  0x00003545   Thumb Code   120  dleqf.o(x$fpl$dleqf)
    __fpl_dcmple_InfNaN                      0x000035a7   Thumb Code     0  dleqf.o(x$fpl$dleqf)
    __aeabi_dmul                             0x000035bd   Thumb Code     0  dmul.o(x$fpl$dmul)
    _dmul                                    0x000035bd   Thumb Code   332  dmul.o(x$fpl$dmul)
    __fpl_dnaninf                            0x00003711   Thumb Code   156  dnaninf.o(x$fpl$dnaninf)
    __fpl_dretinf                            0x000037ad   Thumb Code    12  dretinf.o(x$fpl$dretinf)
    __I$use$fp                               0x000037b8   Number         0  usenofp.o(x$fpl$usenofp)
    os_thread_def_LCD                        0x000037b8   Data          16  thread.o(.constdata)
    os_maxtaskrun                            0x000037c8   Data           2  rtx_conf_cm.o(.constdata)
    os_stackinfo                             0x000037cc   Data           4  rtx_conf_cm.o(.constdata)
    os_rrobin                                0x000037d0   Data           4  rtx_conf_cm.o(.constdata)
    os_tickfreq                              0x000037d4   Data           4  rtx_conf_cm.o(.constdata)
    os_tickus_i                              0x000037d8   Data           2  rtx_conf_cm.o(.constdata)
    os_tickus_f                              0x000037da   Data           2  rtx_conf_cm.o(.constdata)
    os_trv                                   0x000037dc   Data           4  rtx_conf_cm.o(.constdata)
    os_flags                                 0x000037e0   Data           1  rtx_conf_cm.o(.constdata)
    CMSIS_RTOS_API_Version                   0x000037e4   Data           4  rtx_conf_cm.o(.constdata)
    CMSIS_RTOS_RTX_Version                   0x000037e8   Data           4  rtx_conf_cm.o(.constdata)
    os_clockrate                             0x000037ec   Data           4  rtx_conf_cm.o(.constdata)
    os_timernum                              0x000037f0   Data           4  rtx_conf_cm.o(.constdata)
    mp_tcb_size                              0x000037f4   Data           2  rtx_conf_cm.o(.constdata)
    mp_stk_size                              0x000037f8   Data           4  rtx_conf_cm.o(.constdata)
    os_stack_sz                              0x000037fc   Data           4  rtx_conf_cm.o(.constdata)
    os_fifo_size                             0x00003800   Data           1  rtx_conf_cm.o(.constdata)
    os_thread_def_osTimerThread              0x00003804   Data          16  rtx_conf_cm.o(.constdata)
    os_messageQ_def_osTimerMessageQ          0x00003814   Data           8  rtx_conf_cm.o(.constdata)
    mp_tmr_size                              0x0000381c   Data           2  rtx_conf_cm.o(.constdata)
    os_thread_def_main                       0x00003820   Data          16  rtx_conf_cm.o(.constdata)
    Driver_SPI1                              0x00003880   Data          44  ssp_lpc17xx.o(.constdata)
    Region$$Table$$Base                      0x000038ac   Number         0  anon$$obj.o(Region$$Table)
    Region$$Table$$Limit                     0x000038dc   Number         0  anon$$obj.o(Region$$Table)
    mp_tcb                                   0x10000000   Data         376  rtx_conf_cm.o(.bss)
    mp_stk                                   0x10000178   Data       12016  rtx_conf_cm.o(.bss)
    os_stack_mem                             0x10003068   Data        2232  rtx_conf_cm.o(.bss)
    os_fifo                                  0x10003920   Data         132  rtx_conf_cm.o(.bss)
    os_active_TCB                            0x100039a4   Data          28  rtx_conf_cm.o(.bss)
    os_messageQ_q_osTimerMessageQ            0x100039c0   Data          32  rtx_conf_cm.o(.bss)
    tid_Thread                               0x2007c000   Data           4  thread.o(.data)
    contador                                 0x2007c004   Data           4  thread.o(.data)
    contador2                                0x2007c008   Data           4  thread.o(.data)
    linea                                    0x2007c00c   Data           4  thread.o(.data)
    SPIdrv                                   0x2007c010   Data           4  lcd.o(.data)
    variacion                                0x2007c018   Data           8  lcd.o(.data)
    posicionL1                               0x2007c020   Data           4  lcd.o(.data)
    posicionL2                               0x2007c024   Data           4  lcd.o(.data)
    osThreadId_osTimerThread                 0x2007c028   Data           4  rtx_conf_cm.o(.data)
    osMessageQId_osTimerMessageQ             0x2007c02c   Data           4  rtx_conf_cm.o(.data)
    os_tmr                                   0x2007c030   Data           4  rtx_conf_cm.o(.data)
    m_tmr                                    0x2007c034   Data           4  rtx_conf_cm.o(.data)
    SystemCoreClock                          0x2007c054   Data           4  system_lpc17xx.o(.data)
    os_initialized                           0x2007c058   Data           1  rt_cmsis.o(.data)
    os_running                               0x2007c059   Data           1  rt_cmsis.o(.data)
    os_timer_head                            0x2007c05c   Data           4  rt_cmsis.o(.data)
    os_tsk                                   0x2007c060   Data           8  rt_task.o(.data)
    os_tick_irqn                             0x2007c06c   Data           4  rt_system.o(.data)
    os_time                                  0x2007c070   Data           4  rt_time.o(.data)
    os_robin                                 0x2007c074   Data           8  rt_robin.o(.data)
    dbg_msg                                  0x2007c07c   Data           1  hal_cm.o(.data)
    buffer                                   0x2007c080   Data         512  lcd.o(.bss)
    os_idle_TCB                              0x2007c2e8   Data          52  rt_task.o(.bss)
    os_rdy                                   0x2007c31c   Data          24  rt_list.o(.bss)
    os_dly                                   0x2007c334   Data          24  rt_list.o(.bss)
    __libspace_start                         0x2007c34c   Data          96  libspace.o(.bss)
    __temporary_stack_top$libspace           0x2007c3ac   Data           0  libspace.o(.bss)



==============================================================================

Memory Map of the image

  Image Entry point : 0x000000cd

  Load Region LR_IROM1 (Base: 0x00000000, Size: 0x0000395c, Max: 0x00080000, ABSOLUTE)

    Execution Region ER_IROM1 (Exec base: 0x00000000, Load base: 0x00000000, Size: 0x000038dc, Max: 0x00080000, ABSOLUTE)

    Exec Addr    Load Addr    Size         Type   Attr      Idx    E Section Name        Object

    0x00000000   0x00000000   0x000000cc   Data   RO          722    RESET               startup_lpc17xx.o
    0x000000cc   0x000000cc   0x00000008   Code   RO         2023  * !!!main             c_w.l(__main.o)
    0x000000d4   0x000000d4   0x00000034   Code   RO         2263    !!!scatter          c_w.l(__scatter.o)
    0x00000108   0x00000108   0x0000001a   Code   RO         2265    !!handler_copy      c_w.l(__scatter_copy.o)
    0x00000122   0x00000122   0x00000002   PAD
    0x00000124   0x00000124   0x0000001c   Code   RO         2267    !!handler_zi        c_w.l(__scatter_zi.o)
    0x00000140   0x00000140   0x00000002   Code   RO         2149    .ARM.Collect$$libinit$$00000000  c_w.l(libinit.o)
    0x00000142   0x00000142   0x00000000   Code   RO         2151    .ARM.Collect$$libinit$$00000002  c_w.l(libinit2.o)
    0x00000142   0x00000142   0x00000000   Code   RO         2153    .ARM.Collect$$libinit$$00000004  c_w.l(libinit2.o)
    0x00000142   0x00000142   0x00000000   Code   RO         2156    .ARM.Collect$$libinit$$0000000A  c_w.l(libinit2.o)
    0x00000142   0x00000142   0x00000000   Code   RO         2158    .ARM.Collect$$libinit$$0000000C  c_w.l(libinit2.o)
    0x00000142   0x00000142   0x00000000   Code   RO         2160    .ARM.Collect$$libinit$$0000000E  c_w.l(libinit2.o)
    0x00000142   0x00000142   0x00000000   Code   RO         2163    .ARM.Collect$$libinit$$00000011  c_w.l(libinit2.o)
    0x00000142   0x00000142   0x00000000   Code   RO         2165    .ARM.Collect$$libinit$$00000013  c_w.l(libinit2.o)
    0x00000142   0x00000142   0x00000000   Code   RO         2167    .ARM.Collect$$libinit$$00000015  c_w.l(libinit2.o)
    0x00000142   0x00000142   0x00000000   Code   RO         2169    .ARM.Collect$$libinit$$00000017  c_w.l(libinit2.o)
    0x00000142   0x00000142   0x00000000   Code   RO         2171    .ARM.Collect$$libinit$$00000019  c_w.l(libinit2.o)
    0x00000142   0x00000142   0x00000000   Code   RO         2173    .ARM.Collect$$libinit$$0000001B  c_w.l(libinit2.o)
    0x00000142   0x00000142   0x00000000   Code   RO         2175    .ARM.Collect$$libinit$$0000001D  c_w.l(libinit2.o)
    0x00000142   0x00000142   0x00000000   Code   RO         2177    .ARM.Collect$$libinit$$0000001F  c_w.l(libinit2.o)
    0x00000142   0x00000142   0x00000000   Code   RO         2179    .ARM.Collect$$libinit$$00000021  c_w.l(libinit2.o)
    0x00000142   0x00000142   0x00000000   Code   RO         2181    .ARM.Collect$$libinit$$00000023  c_w.l(libinit2.o)
    0x00000142   0x00000142   0x00000000   Code   RO         2183    .ARM.Collect$$libinit$$00000025  c_w.l(libinit2.o)
    0x00000142   0x00000142   0x00000000   Code   RO         2187    .ARM.Collect$$libinit$$0000002C  c_w.l(libinit2.o)
    0x00000142   0x00000142   0x00000000   Code   RO         2189    .ARM.Collect$$libinit$$0000002E  c_w.l(libinit2.o)
    0x00000142   0x00000142   0x00000000   Code   RO         2191    .ARM.Collect$$libinit$$00000030  c_w.l(libinit2.o)
    0x00000142   0x00000142   0x00000000   Code   RO         2193    .ARM.Collect$$libinit$$00000032  c_w.l(libinit2.o)
    0x00000142   0x00000142   0x00000002   Code   RO         2194    .ARM.Collect$$libinit$$00000033  c_w.l(libinit2.o)
    0x00000144   0x00000144   0x00000002   Code   RO         2195    .ARM.Collect$$libshutdown$$00000000  c_w.l(libshutdown.o)
    0x00000146   0x00000146   0x00000000   Code   RO         2208    .ARM.Collect$$libshutdown$$00000002  c_w.l(libshutdown2.o)
    0x00000146   0x00000146   0x00000000   Code   RO         2210    .ARM.Collect$$libshutdown$$00000004  c_w.l(libshutdown2.o)
    0x00000146   0x00000146   0x00000000   Code   RO         2213    .ARM.Collect$$libshutdown$$00000007  c_w.l(libshutdown2.o)
    0x00000146   0x00000146   0x00000000   Code   RO         2216    .ARM.Collect$$libshutdown$$0000000A  c_w.l(libshutdown2.o)
    0x00000146   0x00000146   0x00000000   Code   RO         2218    .ARM.Collect$$libshutdown$$0000000C  c_w.l(libshutdown2.o)
    0x00000146   0x00000146   0x00000000   Code   RO         2221    .ARM.Collect$$libshutdown$$0000000F  c_w.l(libshutdown2.o)
    0x00000146   0x00000146   0x00000002   Code   RO         2222    .ARM.Collect$$libshutdown$$00000010  c_w.l(libshutdown2.o)
    0x00000148   0x00000148   0x00000000   Code   RO         2039    .ARM.Collect$$rtentry$$00000000  c_w.l(__rtentry.o)
    0x00000148   0x00000148   0x00000000   Code   RO         2065    .ARM.Collect$$rtentry$$00000002  c_w.l(__rtentry2.o)
    0x00000148   0x00000148   0x00000006   Code   RO         2077    .ARM.Collect$$rtentry$$00000004  c_w.l(__rtentry4.o)
    0x0000014e   0x0000014e   0x00000000   Code   RO         2067    .ARM.Collect$$rtentry$$00000009  c_w.l(__rtentry2.o)
    0x0000014e   0x0000014e   0x00000004   Code   RO         2068    .ARM.Collect$$rtentry$$0000000A  c_w.l(__rtentry2.o)
    0x00000152   0x00000152   0x00000008   Code   RO         2069    .ARM.Collect$$rtentry$$0000000B  c_w.l(__rtentry2.o)
    0x0000015a   0x0000015a   0x00000008   Code   RO         2071    .ARM.Collect$$rtentry$$0000000D  c_w.l(__rtentry2.o)
    0x00000162   0x00000162   0x00000002   Code   RO         2040    .ARM.Collect$$rtexit$$00000000  c_w.l(rtexit.o)
    0x00000164   0x00000164   0x00000000   Code   RO         2080    .ARM.Collect$$rtexit$$00000002  c_w.l(rtexit2.o)
    0x00000164   0x00000164   0x00000004   Code   RO         2081    .ARM.Collect$$rtexit$$00000003  c_w.l(rtexit2.o)
    0x00000168   0x00000168   0x00000006   Code   RO         2082    .ARM.Collect$$rtexit$$00000004  c_w.l(rtexit2.o)
    0x0000016e   0x0000016e   0x00000002   PAD
    0x00000170   0x00000170   0x0000001c   Code   RO          295    .emb_text           rtx_conf_cm.o
    0x0000018c   0x0000018c   0x00000130   Code   RO         1964    .emb_text           RTX_CM3.lib(hal_cm3.o)
    0x000002bc   0x000002bc   0x0000003c   Code   RO          724    .text               startup_lpc17xx.o
    0x000002f8   0x000002f8   0x00000002   Code   RO         2196    .text               c_w.l(use_no_semi.o)
    0x000002fa   0x000002fa   0x00000000   Code   RO         2198    .text               c_w.l(indicate_semi.o)
    0x000002fa   0x000002fa   0x00000002   Code   RO         1511    i.os_tick_irqack    RTX_CM3.lib(rt_system.o)
    0x000002fc   0x000002fc   0x00000004   Code   RO          723    .ARM.__at_0x02FC    startup_lpc17xx.o
    0x00000300   0x00000300   0x00000008   Code   RO         1979    .text               c_w.l(libspace.o)
    0x00000308   0x00000308   0x00000012   Code   RO         2015    .text               c_w.l(exit.o)
    0x0000031a   0x0000031a   0x0000004e   Code   RO         2019    .text               c_w.l(rt_memclr_w.o)
    0x00000368   0x00000368   0x00000006   Code   RO         2021    .text               c_w.l(heapauxi.o)
    0x0000036e   0x0000036e   0x00000002   PAD
    0x00000370   0x00000370   0x0000000c   Code   RO         2133    .text               c_w.l(sys_exit.o)
    0x0000037c   0x0000037c   0x0000004a   Code   RO         2135    .text               c_w.l(sys_stackheap_outer.o)
    0x000003c6   0x000003c6   0x00000002   PAD
    0x000003c8   0x000003c8   0x00000004   Code   RO         1974    SVC_TABLE           RTX_CM3.lib(svc_table.o)
    0x000003cc   0x000003cc   0x00000020   Code   RO          543    i.Clear_Channel_active_flag  gpdma_lpc17xx.o
    0x000003ec   0x000003ec   0x0000006c   Code   RO          544    i.DMA_IRQHandler    gpdma_lpc17xx.o
    0x00000458   0x00000458   0x000000e8   Code   RO          263    i.EINT3_IRQHandler  utils.o
    0x00000540   0x00000540   0x00000098   Code   RO          545    i.GPDMA_ChannelConfigure  gpdma_lpc17xx.o
    0x000005d8   0x000005d8   0x00000030   Code   RO          546    i.GPDMA_ChannelDisable  gpdma_lpc17xx.o
    0x00000608   0x00000608   0x00000028   Code   RO          548    i.GPDMA_ChannelGetCount  gpdma_lpc17xx.o
    0x00000630   0x00000630   0x0000008c   Code   RO          550    i.GPDMA_Initialize  gpdma_lpc17xx.o
    0x000006bc   0x000006bc   0x00000044   Code   RO          551    i.GPDMA_PeripheralSelect  gpdma_lpc17xx.o
    0x00000700   0x00000700   0x00000080   Code   RO          552    i.GPDMA_Uninitialize  gpdma_lpc17xx.o
    0x00000780   0x00000780   0x00000028   Code   RO          634    i.GPIO_PinWrite     gpio_lpc17xx.o
    0x000007a8   0x000007a8   0x00000038   Code   RO          638    i.GPIO_SetDir       gpio_lpc17xx.o
    0x000007e0   0x000007e0   0x00000044   Code   RO          356    i.GetSSPClockFreq   ssp_lpc17xx.o
    0x00000824   0x00000824   0x00000028   Code   RO           31    i.Init_Thread       thread.o
    0x0000084c   0x0000084c   0x00000170   Code   RO          264    i.Initialize_peripherals  utils.o
    0x000009bc   0x000009bc   0x00000114   Code   RO           32    i.LCD               thread.o
    0x00000ad0   0x00000ad0   0x0000004c   Code   RO          117    i.LCD_reset         lcd.o
    0x00000b1c   0x00000b1c   0x000000fc   Code   RO          687    i.PIN_Configure     pin_lpc17xx.o
    0x00000c18   0x00000c18   0x00000018   Code   RO          357    i.SSP1_Control      ssp_lpc17xx.o
    0x00000c30   0x00000c30   0x00000014   Code   RO          358    i.SSP1_GPDMA_Rx_SignalEvent  ssp_lpc17xx.o
    0x00000c44   0x00000c44   0x00000014   Code   RO          359    i.SSP1_GPDMA_Tx_SignalEvent  ssp_lpc17xx.o
    0x00000c58   0x00000c58   0x00000010   Code   RO          360    i.SSP1_GetDataCount  ssp_lpc17xx.o
    0x00000c68   0x00000c68   0x00000010   Code   RO          361    i.SSP1_GetStatus    ssp_lpc17xx.o
    0x00000c78   0x00000c78   0x00000010   Code   RO          362    i.SSP1_IRQHandler   ssp_lpc17xx.o
    0x00000c88   0x00000c88   0x00000014   Code   RO          363    i.SSP1_Initialize   ssp_lpc17xx.o
    0x00000c9c   0x00000c9c   0x00000014   Code   RO          364    i.SSP1_PowerControl  ssp_lpc17xx.o
    0x00000cb0   0x00000cb0   0x00000018   Code   RO          365    i.SSP1_Receive      ssp_lpc17xx.o
    0x00000cc8   0x00000cc8   0x00000018   Code   RO          366    i.SSP1_Send         ssp_lpc17xx.o
    0x00000ce0   0x00000ce0   0x0000001c   Code   RO          367    i.SSP1_Transfer     ssp_lpc17xx.o
    0x00000cfc   0x00000cfc   0x00000010   Code   RO          368    i.SSP1_Uninitialize  ssp_lpc17xx.o
    0x00000d0c   0x00000d0c   0x0000000c   Code   RO          369    i.SSP_GetCapabilities  ssp_lpc17xx.o
    0x00000d18   0x00000d18   0x00000010   Code   RO          370    i.SSP_GetVersion    ssp_lpc17xx.o
    0x00000d28   0x00000d28   0x0000051e   Code   RO          371    i.SSPx_Control      ssp_lpc17xx.o
    0x00001246   0x00001246   0x00000036   Code   RO          372    i.SSPx_GPDMA_Rx_SignalEvent  ssp_lpc17xx.o
    0x0000127c   0x0000127c   0x0000001c   Code   RO          373    i.SSPx_GPDMA_Tx_SignalEvent  ssp_lpc17xx.o
    0x00001298   0x00001298   0x0000002c   Code   RO          374    i.SSPx_GetDataCount  ssp_lpc17xx.o
    0x000012c4   0x000012c4   0x0000005a   Code   RO          375    i.SSPx_GetStatus    ssp_lpc17xx.o
    0x0000131e   0x0000131e   0x00000104   Code   RO          376    i.SSPx_IRQHandler   ssp_lpc17xx.o
    0x00001422   0x00001422   0x000000a0   Code   RO          377    i.SSPx_Initialize   ssp_lpc17xx.o
    0x000014c2   0x000014c2   0x00000002   PAD
    0x000014c4   0x000014c4   0x000001bc   Code   RO          378    i.SSPx_PowerControl  ssp_lpc17xx.o
    0x00001680   0x00001680   0x00000164   Code   RO          379    i.SSPx_Receive      ssp_lpc17xx.o
    0x000017e4   0x000017e4   0x0000015c   Code   RO          380    i.SSPx_Send         ssp_lpc17xx.o
    0x00001940   0x00001940   0x0000018a   Code   RO          381    i.SSPx_Transfer     ssp_lpc17xx.o
    0x00001aca   0x00001aca   0x00000068   Code   RO          382    i.SSPx_Uninitialize  ssp_lpc17xx.o
    0x00001b32   0x00001b32   0x00000002   PAD
    0x00001b34   0x00001b34   0x00000038   Code   RO          553    i.Set_Channel_active_flag  gpdma_lpc17xx.o
    0x00001b6c   0x00001b6c   0x00000140   Code   RO          734    i.SystemInit        system_lpc17xx.o
    0x00001cac   0x00001cac   0x0000001c   Code   RO          383    i.__NVIC_ClearPendingIRQ  ssp_lpc17xx.o
    0x00001cc8   0x00001cc8   0x0000001c   Code   RO          554    i.__NVIC_ClearPendingIRQ  gpdma_lpc17xx.o
    0x00001ce4   0x00001ce4   0x00000046   Code   RO         1863    i._init_box         RTX_CM3.lib(rt_membox.o)
    0x00001d2a   0x00001d2a   0x00000002   PAD
    0x00001d2c   0x00001d2c   0x00000020   Code   RO          297    i._mutex_acquire    rtx_conf_cm.o
    0x00001d4c   0x00001d4c   0x0000001c   Code   RO          299    i._mutex_release    rtx_conf_cm.o
    0x00001d68   0x00001d68   0x000000a8   Code   RO          118    i.copy_to_lcd       lcd.o
    0x00001e10   0x00001e10   0x00000030   Code   RO         1916    i.dbg_init          RTX_CM3.lib(hal_cm.o)
    0x00001e40   0x00001e40   0x00000020   Code   RO         1917    i.dbg_task_notify   RTX_CM3.lib(hal_cm.o)
    0x00001e60   0x00001e60   0x00000010   Code   RO         1918    i.dbg_task_switch   RTX_CM3.lib(hal_cm.o)
    0x00001e70   0x00001e70   0x00000098   Code   RO          124    i.init_SPI          lcd.o
    0x00001f08   0x00001f08   0x0000002a   Code   RO          769    i.isrMessageGet     RTX_CM3.lib(rt_cmsis.o)
    0x00001f32   0x00001f32   0x0000002c   Code   RO          770    i.isrMessagePut     RTX_CM3.lib(rt_cmsis.o)
    0x00001f5e   0x00001f5e   0x00000024   Code   RO          772    i.isrSignalSet      RTX_CM3.lib(rt_cmsis.o)
    0x00001f82   0x00001f82   0x00000002   PAD
    0x00001f84   0x00001f84   0x00000028   Code   RO         1600    i.isr_evt_set       RTX_CM3.lib(rt_event.o)
    0x00001fac   0x00001fac   0x00000056   Code   RO         1718    i.isr_mbx_receive   RTX_CM3.lib(rt_mailbox.o)
    0x00002002   0x00002002   0x0000000e   Code   RO         1719    i.isr_mbx_send      RTX_CM3.lib(rt_mailbox.o)
    0x00002010   0x00002010   0x00000038   Code   RO          126    i.limpiaBuffer      lcd.o
    0x00002048   0x00002048   0x00000016   Code   RO            1    i.main              main.o
    0x0000205e   0x0000205e   0x00000002   PAD
    0x00002060   0x00002060   0x00000018   Code   RO          127    i.masLinea          lcd.o
    0x00002078   0x00002078   0x00000014   Code   RO          128    i.masLinea2         lcd.o
    0x0000208c   0x0000208c   0x00000018   Code   RO          129    i.menosLinea        lcd.o
    0x000020a4   0x000020a4   0x00000014   Code   RO          130    i.menosLinea2       lcd.o
    0x000020b8   0x000020b8   0x00000018   Code   RO          773    i.osDelay           RTX_CM3.lib(rt_cmsis.o)
    0x000020d0   0x000020d0   0x00000024   Code   RO          774    i.osKernelInitialize  RTX_CM3.lib(rt_cmsis.o)
    0x000020f4   0x000020f4   0x0000006c   Code   RO          776    i.osKernelStart     RTX_CM3.lib(rt_cmsis.o)
    0x00002160   0x00002160   0x00000018   Code   RO          785    i.osMessageGet      RTX_CM3.lib(rt_cmsis.o)
    0x00002178   0x00002178   0x00000018   Code   RO          800    i.osSignalSet       RTX_CM3.lib(rt_cmsis.o)
    0x00002190   0x00002190   0x00000018   Code   RO          801    i.osSignalWait      RTX_CM3.lib(rt_cmsis.o)
    0x000021a8   0x000021a8   0x0000002c   Code   RO          802    i.osThreadCreate    RTX_CM3.lib(rt_cmsis.o)
    0x000021d4   0x000021d4   0x00000018   Code   RO          803    i.osThreadExit      RTX_CM3.lib(rt_cmsis.o)
    0x000021ec   0x000021ec   0x00000018   Code   RO          808    i.osThreadYield     RTX_CM3.lib(rt_cmsis.o)
    0x00002204   0x00002204   0x0000000c   Code   RO          809    i.osTimerCall       RTX_CM3.lib(rt_cmsis.o)
    0x00002210   0x00002210   0x0000002c   Code   RO          814    i.osTimerThread     RTX_CM3.lib(rt_cmsis.o)
    0x0000223c   0x0000223c   0x00000022   Code   RO          300    i.os_error          rtx_conf_cm.o
    0x0000225e   0x0000225e   0x00000004   Code   RO          301    i.os_idle_demon     rtx_conf_cm.o
    0x00002262   0x00002262   0x00000002   PAD
    0x00002264   0x00002264   0x00000028   Code   RO         1510    i.os_tick_init      RTX_CM3.lib(rt_system.o)
    0x0000228c   0x0000228c   0x00000050   Code   RO          131    i.retraso           lcd.o
    0x000022dc   0x000022dc   0x0000001a   Code   RO         1864    i.rt_alloc_box      RTX_CM3.lib(rt_membox.o)
    0x000022f6   0x000022f6   0x0000003e   Code   RO         1892    i.rt_alloc_mem      RTX_CM3.lib(rt_memory.o)
    0x00002334   0x00002334   0x00000038   Code   RO         1391    i.rt_block          RTX_CM3.lib(rt_task.o)
    0x0000236c   0x0000236c   0x00000048   Code   RO         1841    i.rt_chk_robin      RTX_CM3.lib(rt_robin.o)
    0x000023b4   0x000023b4   0x00000070   Code   RO         1642    i.rt_dec_dly        RTX_CM3.lib(rt_list.o)
    0x00002424   0x00002424   0x00000044   Code   RO         1392    i.rt_dispatch       RTX_CM3.lib(rt_task.o)
    0x00002468   0x00002468   0x00000006   Code   RO         1808    i.rt_dly_wait       RTX_CM3.lib(rt_time.o)
    0x0000246e   0x0000246e   0x00000002   PAD
    0x00002470   0x00002470   0x00000050   Code   RO         1603    i.rt_evt_psh        RTX_CM3.lib(rt_event.o)
    0x000024c0   0x000024c0   0x0000005c   Code   RO         1604    i.rt_evt_set        RTX_CM3.lib(rt_event.o)
    0x0000251c   0x0000251c   0x0000003c   Code   RO         1605    i.rt_evt_wait       RTX_CM3.lib(rt_event.o)
    0x00002558   0x00002558   0x0000002c   Code   RO         1865    i.rt_free_box       RTX_CM3.lib(rt_membox.o)
    0x00002584   0x00002584   0x00000028   Code   RO         1893    i.rt_free_mem       RTX_CM3.lib(rt_memory.o)
    0x000025ac   0x000025ac   0x00000028   Code   RO         1643    i.rt_get_first      RTX_CM3.lib(rt_list.o)
    0x000025d4   0x000025d4   0x00000024   Code   RO         1644    i.rt_get_same_rdy_prio  RTX_CM3.lib(rt_list.o)
    0x000025f8   0x000025f8   0x00000008   Code   RO          819    i.rt_id2obj         RTX_CM3.lib(rt_cmsis.o)
    0x00002600   0x00002600   0x00000048   Code   RO         1393    i.rt_init_context   RTX_CM3.lib(rt_task.o)
    0x00002648   0x00002648   0x0000001a   Code   RO         1894    i.rt_init_mem       RTX_CM3.lib(rt_memory.o)
    0x00002662   0x00002662   0x00000002   PAD
    0x00002664   0x00002664   0x00000018   Code   RO         1842    i.rt_init_robin     RTX_CM3.lib(rt_robin.o)
    0x0000267c   0x0000267c   0x00000080   Code   RO         1919    i.rt_init_stack     RTX_CM3.lib(hal_cm.o)
    0x000026fc   0x000026fc   0x00000008   Code   RO         1720    i.rt_mbx_check      RTX_CM3.lib(rt_mailbox.o)
    0x00002704   0x00002704   0x0000001a   Code   RO         1721    i.rt_mbx_init       RTX_CM3.lib(rt_mailbox.o)
    0x0000271e   0x0000271e   0x00000002   PAD
    0x00002720   0x00002720   0x000000f0   Code   RO         1722    i.rt_mbx_psh        RTX_CM3.lib(rt_mailbox.o)
    0x00002810   0x00002810   0x000000b4   Code   RO         1724    i.rt_mbx_wait       RTX_CM3.lib(rt_mailbox.o)
    0x000028c4   0x000028c4   0x00000044   Code   RO          820    i.rt_ms2tick        RTX_CM3.lib(rt_cmsis.o)
    0x00002908   0x00002908   0x000000d8   Code   RO         1477    i.rt_mut_release    RTX_CM3.lib(rt_mutex.o)
    0x000029e0   0x000029e0   0x00000078   Code   RO         1478    i.rt_mut_wait       RTX_CM3.lib(rt_mutex.o)
    0x00002a58   0x00002a58   0x0000007c   Code   RO         1514    i.rt_pop_req        RTX_CM3.lib(rt_system.o)
    0x00002ad4   0x00002ad4   0x00000020   Code   RO         1515    i.rt_psh_req        RTX_CM3.lib(rt_system.o)
    0x00002af4   0x00002af4   0x0000005c   Code   RO         1645    i.rt_psq_enq        RTX_CM3.lib(rt_list.o)
    0x00002b50   0x00002b50   0x00000048   Code   RO         1646    i.rt_put_dly        RTX_CM3.lib(rt_list.o)
    0x00002b98   0x00002b98   0x00000036   Code   RO         1647    i.rt_put_prio       RTX_CM3.lib(rt_list.o)
    0x00002bce   0x00002bce   0x00000002   PAD
    0x00002bd0   0x00002bd0   0x00000014   Code   RO         1648    i.rt_put_rdy_first  RTX_CM3.lib(rt_list.o)
    0x00002be4   0x00002be4   0x00000034   Code   RO         1649    i.rt_resort_prio    RTX_CM3.lib(rt_list.o)
    0x00002c18   0x00002c18   0x00000006   Code   RO         1920    i.rt_ret_val        RTX_CM3.lib(hal_cm.o)
    0x00002c1e   0x00002c1e   0x00000008   Code   RO         1921    i.rt_ret_val2       RTX_CM3.lib(hal_cm.o)
    0x00002c26   0x00002c26   0x00000028   Code   RO         1650    i.rt_rmv_dly        RTX_CM3.lib(rt_list.o)
    0x00002c4e   0x00002c4e   0x00000002   PAD
    0x00002c50   0x00002c50   0x00000030   Code   RO         1651    i.rt_rmv_list       RTX_CM3.lib(rt_list.o)
    0x00002c80   0x00002c80   0x00000034   Code   RO         1769    i.rt_sem_psh        RTX_CM3.lib(rt_semaphore.o)
    0x00002cb4   0x00002cb4   0x00000024   Code   RO         1517    i.rt_stk_check      RTX_CM3.lib(rt_system.o)
    0x00002cd8   0x00002cd8   0x00000028   Code   RO         1394    i.rt_switch_req     RTX_CM3.lib(rt_task.o)
    0x00002d00   0x00002d00   0x000000cc   Code   RO         1395    i.rt_sys_init       RTX_CM3.lib(rt_task.o)
    0x00002dcc   0x00002dcc   0x00000078   Code   RO         1396    i.rt_sys_start      RTX_CM3.lib(rt_task.o)
    0x00002e44   0x00002e44   0x00000040   Code   RO         1519    i.rt_systick        RTX_CM3.lib(rt_system.o)
    0x00002e84   0x00002e84   0x00000012   Code   RO          821    i.rt_tid2ptcb       RTX_CM3.lib(rt_cmsis.o)
    0x00002e96   0x00002e96   0x00000002   PAD
    0x00002e98   0x00002e98   0x00000034   Code   RO          822    i.rt_timer_insert   RTX_CM3.lib(rt_cmsis.o)
    0x00002ecc   0x00002ecc   0x00000088   Code   RO         1397    i.rt_tsk_create     RTX_CM3.lib(rt_task.o)
    0x00002f54   0x00002f54   0x0000017c   Code   RO         1398    i.rt_tsk_delete     RTX_CM3.lib(rt_task.o)
    0x000030d0   0x000030d0   0x00000030   Code   RO         1399    i.rt_tsk_pass       RTX_CM3.lib(rt_task.o)
    0x00003100   0x00003100   0x0000007c   Code   RO         1400    i.rt_tsk_prio       RTX_CM3.lib(rt_task.o)
    0x0000317c   0x0000317c   0x00000010   Code   RO         1401    i.rt_tsk_self       RTX_CM3.lib(rt_task.o)
    0x0000318c   0x0000318c   0x00000012   Code   RO          824    i.svcDelay          RTX_CM3.lib(rt_cmsis.o)
    0x0000319e   0x0000319e   0x00000002   PAD
    0x000031a0   0x000031a0   0x00000070   Code   RO          825    i.svcKernelInitialize  RTX_CM3.lib(rt_cmsis.o)
    0x00003210   0x00003210   0x00000048   Code   RO          827    i.svcKernelStart    RTX_CM3.lib(rt_cmsis.o)
    0x00003258   0x00003258   0x00000024   Code   RO          830    i.svcMessageCreate  RTX_CM3.lib(rt_cmsis.o)
    0x0000327c   0x0000327c   0x0000003a   Code   RO          831    i.svcMessageGet     RTX_CM3.lib(rt_cmsis.o)
    0x000032b6   0x000032b6   0x00000024   Code   RO          843    i.svcSignalSet      RTX_CM3.lib(rt_cmsis.o)
    0x000032da   0x000032da   0x00000002   PAD
    0x000032dc   0x000032dc   0x00000054   Code   RO          844    i.svcSignalWait     RTX_CM3.lib(rt_cmsis.o)
    0x00003330   0x00003330   0x0000006c   Code   RO          845    i.svcThreadCreate   RTX_CM3.lib(rt_cmsis.o)
    0x0000339c   0x0000339c   0x0000001c   Code   RO          846    i.svcThreadGetId    RTX_CM3.lib(rt_cmsis.o)
    0x000033b8   0x000033b8   0x00000038   Code   RO          849    i.svcThreadTerminate  RTX_CM3.lib(rt_cmsis.o)
    0x000033f0   0x000033f0   0x0000000a   Code   RO          850    i.svcThreadYield    RTX_CM3.lib(rt_cmsis.o)
    0x000033fa   0x000033fa   0x00000018   Code   RO          851    i.svcTimerCall      RTX_CM3.lib(rt_cmsis.o)
    0x00003412   0x00003412   0x00000002   PAD
    0x00003414   0x00003414   0x0000005c   Code   RO          860    i.sysTimerTick      RTX_CM3.lib(rt_cmsis.o)
    0x00003470   0x00003470   0x00000034   Code   RO          132    i.wr_cmd            lcd.o
    0x000034a4   0x000034a4   0x00000034   Code   RO          133    i.wr_data           lcd.o
    0x000034d8   0x000034d8   0x00000018   Code   RO         2055    x$fpl$dcmpinf       fz_ws.l(dcmpi.o)
    0x000034f0   0x000034f0   0x0000002e   Code   RO         2026    x$fpl$dflt          fz_ws.l(dflt_clz.o)
    0x0000351e   0x0000351e   0x00000026   Code   RO         2025    x$fpl$dfltu         fz_ws.l(dflt_clz.o)
    0x00003544   0x00003544   0x00000078   Code   RO         2031    x$fpl$dleqf         fz_ws.l(dleqf.o)
    0x000035bc   0x000035bc   0x00000154   Code   RO         2033    x$fpl$dmul          fz_ws.l(dmul.o)
    0x00003710   0x00003710   0x0000009c   Code   RO         2057    x$fpl$dnaninf       fz_ws.l(dnaninf.o)
    0x000037ac   0x000037ac   0x0000000c   Code   RO         2059    x$fpl$dretinf       fz_ws.l(dretinf.o)
    0x000037b8   0x000037b8   0x00000000   Code   RO         2063    x$fpl$usenofp       fz_ws.l(usenofp.o)
    0x000037b8   0x000037b8   0x00000010   Data   RO           33    .constdata          thread.o
    0x000037c8   0x000037c8   0x00000068   Data   RO          303    .constdata          rtx_conf_cm.o
    0x00003830   0x00003830   0x0000007c   Data   RO          385    .constdata          ssp_lpc17xx.o
    0x000038ac   0x000038ac   0x00000030   Data   RO         2261    Region$$Table       anon$$obj.o


    Execution Region RW_IRAM1 (Exec base: 0x10000000, Load base: 0x000038dc, Size: 0x00003d00, Max: 0x00008000, ABSOLUTE)

    Exec Addr    Load Addr    Size         Type   Attr      Idx    E Section Name        Object

    0x10000000        -       0x00003d00   Zero   RW          302    .bss                rtx_conf_cm.o


    Execution Region RW_IRAM2 (Exec base: 0x2007c000, Load base: 0x000038dc, Size: 0x000005b0, Max: 0x00008000, ABSOLUTE)

    Exec Addr    Load Addr    Size         Type   Attr      Idx    E Section Name        Object

    0x2007c000   0x000038dc   0x00000010   Data   RW           34    .data               thread.o
    0x2007c010   0x000038ec   0x00000018   Data   RW          136    .data               lcd.o
    0x2007c028   0x00003904   0x00000014   Data   RW          304    .data               rtx_conf_cm.o
    0x2007c03c   0x00003918   0x00000010   Data   RW          386    .data               ssp_lpc17xx.o
    0x2007c04c   0x00003928   0x00000008   Data   RW          556    .data               gpdma_lpc17xx.o
    0x2007c054   0x00003930   0x00000004   Data   RW          735    .data               system_lpc17xx.o
    0x2007c058   0x00003934   0x00000008   Data   RW          863    .data               RTX_CM3.lib(rt_cmsis.o)
    0x2007c060   0x0000393c   0x00000008   Data   RW         1403    .data               RTX_CM3.lib(rt_task.o)
    0x2007c068   0x00003944   0x00000008   Data   RW         1522    .data               RTX_CM3.lib(rt_system.o)
    0x2007c070   0x0000394c   0x00000004   Data   RW         1812    .data               RTX_CM3.lib(rt_time.o)
    0x2007c074   0x00003950   0x00000008   Data   RW         1843    .data               RTX_CM3.lib(rt_robin.o)
    0x2007c07c   0x00003958   0x00000001   Data   RW         1922    .data               RTX_CM3.lib(hal_cm.o)
    0x2007c07d   0x00003959   0x00000003   PAD
    0x2007c080        -       0x00000200   Zero   RW          134    .bss                lcd.o
    0x2007c280        -       0x00000028   Zero   RW          384    .bss                ssp_lpc17xx.o
    0x2007c2a8        -       0x00000040   Zero   RW          555    .bss                gpdma_lpc17xx.o
    0x2007c2e8        -       0x00000034   Zero   RW         1402    .bss                RTX_CM3.lib(rt_task.o)
    0x2007c31c        -       0x00000030   Zero   RW         1652    .bss                RTX_CM3.lib(rt_list.o)
    0x2007c34c        -       0x00000060   Zero   RW         1980    .bss                c_w.l(libspace.o)
    0x2007c3ac   0x00003959   0x00000004   PAD
    0x2007c3b0        -       0x00000000   Zero   RW          721    HEAP                startup_lpc17xx.o
    0x2007c3b0        -       0x00000200   Zero   RW          720    STACK               startup_lpc17xx.o


==============================================================================

Image component sizes


      Code (inc. data)   RO Data    RW Data    ZI Data      Debug   Object Name

       800         90          0          8         64       7954   gpdma_lpc17xx.o
        96          8          0          0          0       1202   gpio_lpc17xx.o
       724         74          0         24        512       6320   lcd.o
        22          0          0          0          0       8993   main.o
       252          6          0          0          0        804   pin_lpc17xx.o
       126         26        104         20      15616       9011   rtx_conf_cm.o
      3960        106        124         16         40      49231   ssp_lpc17xx.o
        64         26        204          0        512        988   startup_lpc17xx.o
       320         18          0          4          0        795   system_lpc17xx.o
       316         24         16         16          0      27896   thread.o
       600         12          0          0          0      27583   utils.o

    ----------------------------------------------------------------------
      7288        390        496         88      16744     140777   Object Totals
         0          0         48          0          0          0   (incl. Generated)
         8          0          0          0          0          0   (incl. Padding)

    ----------------------------------------------------------------------

      Code (inc. data)   RO Data    RW Data    ZI Data      Debug   Library Member Name

       238         24          0          1          0       3268   hal_cm.o
       304         36          0          0          0        760   hal_cm3.o
      1390        166          0          8          0      37443   rt_cmsis.o
       272         18          0          0          0       2618   rt_event.o
       566         44          0          0         48       8700   rt_list.o
       554         10          0          0          0       3901   rt_mailbox.o
       140          0          0          0          0       1901   rt_membox.o
       128          0          0          0          0       2275   rt_memory.o
       336         14          0          0          0       1631   rt_mutex.o
        96         22          0          8          0       1134   rt_robin.o
        52          4          0          0          0        565   rt_semaphore.o
       298         52          0          8          0       6151   rt_system.o
      1264        184          0          8         52      10055   rt_task.o
         6          0          0          4          0        644   rt_time.o
         4          4          0          0          0        200   svc_table.o
         8          0          0          0          0         68   __main.o
         0          0          0          0          0          0   __rtentry.o
        20          0          0          0          0          0   __rtentry2.o
         6          0          0          0          0          0   __rtentry4.o
        52          8          0          0          0          0   __scatter.o
        26          0          0          0          0          0   __scatter_copy.o
        28          0          0          0          0          0   __scatter_zi.o
        18          0          0          0          0         80   exit.o
         6          0          0          0          0        152   heapauxi.o
         0          0          0          0          0          0   indicate_semi.o
         2          0          0          0          0          0   libinit.o
         2          0          0          0          0          0   libinit2.o
         2          0          0          0          0          0   libshutdown.o
         2          0          0          0          0          0   libshutdown2.o
         8          4          0          0         96         68   libspace.o
        78          0          0          0          0         80   rt_memclr_w.o
         2          0          0          0          0          0   rtexit.o
        10          0          0          0          0          0   rtexit2.o
        12          4          0          0          0         68   sys_exit.o
        74          0          0          0          0         80   sys_stackheap_outer.o
         2          0          0          0          0         68   use_no_semi.o
        24          0          0          0          0         68   dcmpi.o
        84          0          0          0          0        136   dflt_clz.o
       120          4          0          0          0         92   dleqf.o
       340         12          0          0          0        104   dmul.o
       156          4          0          0          0         92   dnaninf.o
        12          0          0          0          0         68   dretinf.o
         0          0          0          0          0          0   usenofp.o

    ----------------------------------------------------------------------
      6772        614          0         40        200      82470   Library Totals
        30          0          0          3          4          0   (incl. Padding)

    ----------------------------------------------------------------------

      Code (inc. data)   RO Data    RW Data    ZI Data      Debug   Library Name

      5648        578          0         37        100      81246   RTX_CM3.lib
       358         16          0          0         96        664   c_w.l
       736         20          0          0          0        560   fz_ws.l

    ----------------------------------------------------------------------
      6772        614          0         40        200      82470   Library Totals

    ----------------------------------------------------------------------

==============================================================================


      Code (inc. data)   RO Data    RW Data    ZI Data      Debug   

     14060       1004        496        128      16944     215287   Grand Totals
     14060       1004        496        128      16944     215287   ELF Image Totals
     14060       1004        496        128          0          0   ROM Totals

==============================================================================

    Total RO  Size (Code + RO Data)                14556 (  14.21kB)
    Total RW  Size (RW Data + ZI Data)             17072 (  16.67kB)
    Total ROM Size (Code + RO Data + RW Data)      14684 (  14.34kB)

==============================================================================

